:020000022000DC
:1070000000C90020290703007BD7040015070300EF
:107010001507030015070300150703000000000013
:107020000000000000000000000000003D08030018
:1070300015070300000000009D070300150703006B
:10704000E10A0300351A0400E10A0300E10A030023
:10705000E10A0300E10A0300E10A0300E10A030078
:10706000E10A0300E10A0300E10A0300E10A030068
:10707000E10A0300E10A0300E10A0300E10A030058
:10708000E10A0300E10A0300E10A0300E10A030048
:10709000E10A0300E10A0300E10A0300E10A030038
:1070A000E10A0300E10A0300E10A0300E10A030028
:1070B000E10A0300E10A0300E10A0300E10A030018
:1070C000E10A0300E10A0300E10A0300E10A030008
:1070D000E10A0300E10A0300E10A0300E10A0300F8
:1070E000E10A0300E10A0300E10A0300E10A0300E8
:1070F000E10A0300E10A0300E10A0300E10A0300D8
:1071000081F0004102E000BF83F0004330B54FEA58
:1071100041044FEA430594EA050F08BF90EA020FC5
:107120001FBF54EA000C55EA020C7FEA645C7FEA58
:10713000655C00F0E2804FEA5454D4EB5555B8BF7B
:107140006D420CDD2C4480EA020281EA030382EAEC
:10715000000083EA010180EA020281EA0303362D7E
:1071600088BF30BD11F0004F4FEA01314FF4801C51
:107170004CEA113102D0404261EB410113F0004F63
:107180004FEA03334CEA133302D0524263EB43031A
:1071900094EA050F00F0A780A4F10104D5F1200EB8
:1071A0000DDB02FA0EFC22FA05F2801841F1000113
:1071B00003FA0EF2801843FA05F359410EE0A5F1E7
:1071C00020050EF1200E012A03FA0EFC28BF4CF018
:1071D000020C43FA05F3C01851EBE37101F00045CE
:1071E00007D54FF0000EDCF1000C7EEB00006EEBDB
:1071F0000101B1F5801F1BD3B1F5001F0CD3490865
:107200005FEA30004FEA3C0C04F101044FEA4452BB
:1072100012F5800F80F09A80BCF1004F08BF5FEA42
:10722000500C50F1000041EB045141EA050130BD22
:107230005FEA4C0C404141EB0101013C28BFB1F534
:10724000801FE9D291F0000F04BF01460020B1FA7F
:1072500081F308BF2033A3F10B03B3F120020CDA52
:107260000C3208DD02F1140CC2F10C0201FA0CF030
:1072700021FA02F10CE002F11402D8BFC2F1200C95
:1072800001FA02F120FA0CFCDCBF41EA0C0190404B
:10729000E41AA2BF01EB0451294330BD6FEA040494
:1072A0001F3C1CDA0C340EDC04F11404C4F120027F
:1072B00020FA04F001FA02F340EA030021FA04F391
:1072C00045EA030130BDC4F10C04C4F1200220FAE8
:1072D00002F001FA04F340EA0300294630BD21FA26
:1072E00004F0294630BD94F0000F83F4801306BFEC
:1072F00081F480110134013D4EE77FEA645C18BFE0
:107300007FEA655C29D094EA050F08BF90EA020F76
:1073100005D054EA000C04BF1946104630BD91EA6E
:10732000030F1EBF0021002030BD5FEA545C05D171
:107330004000494128BF41F0004130BD14F58004B0
:107340003CBF01F5801130BD01F0004545F0FE4124
:1073500041F470014FF0000030BD7FEA645C1ABF59
:10736000194610467FEA655C1CBF0B46024650EA90
:10737000013406BF52EA033591EA030F41F40021BC
:1073800030BD00BF90F0000F04BF0021704730B542
:107390004FF4806404F132044FF000054FF0000117
:1073A00050E700BF90F0000F04BF0021704730B5D8
:1073B0004FF4806404F1320410F0004548BF4042AD
:1073C0004FF000013EE700BF42004FEAE2014FEA02
:1073D00031014FEA02701FBF12F07F4393F07F4FDD
:1073E00081F06051704732F07F4208BF704793F0E0
:1073F0007F4F04BF41F40021704730B54FF46074F3
:1074000001F0004521F000411CE700BF50EA0102F5
:1074100008BF704730B54FF000050AE050EA01029E
:1074200008BF704730B511F0004502D5404261EB0E
:1074300041014FF4806404F132045FEA915C3FF44F
:10744000D8AE4FF003025FEADC0C18BF03325FEAEC
:10745000DC0C18BF033202EBDC02C2F1200300FA9D
:1074600003FC20FA02F001FA03FE40EA0E0021FAC2
:1074700002F11444BDE600BF70B54FF0FF0C4CF4B0
:10748000E06C1CEA11541DBF1CEA135594EA0C0F62
:1074900095EA0C0F00F0DEF82C4481EA030621EA9D
:1074A0004C5123EA4C5350EA013518BF52EA0335D8
:1074B00041F4801143F4801338D0A0FB02CE4FF08A
:1074C0000005E1FB02E506F00042E0FB03E54FF0BA
:1074D0000006E1FB03569CF0000F18BF4EF0010EB2
:1074E000A4F1FF04B6F5007F64F5407404D25FEAAE
:1074F0004E0E6D4146EB060642EAC62141EA555161
:107500004FEAC52040EA5E504FEACE2EB4F1FD0CA2
:1075100088BFBCF5E06F1ED8BEF1004F08BF5FEA20
:10752000500E50F1000041EB045170BD06F00046D2
:1075300046EA010140EA020081EA0301B4EB5C047F
:10754000C2BFD4EB0C0541EA045170BD41F4801177
:107550004FF0000E013C00F3AB8014F1360FDEBF9C
:10756000002001F0004170BDC4F10004203C35DA78
:107570000C341BDC04F11404C4F1200500FA05F3FB
:1075800020FA04F001FA05F240EA020001F000429C
:1075900021F0004110EBD37021FA04F642EB060112
:1075A0005EEA430E08BF20EAD37070BDC4F10C043C
:1075B000C4F1200500FA04F320FA05F001FA04F200
:1075C00040EA020001F0004110EBD37041F10001EC
:1075D0005EEA430E08BF20EAD37070BDC4F12005F7
:1075E00000FA05F24EEA020E20FA04F301FA05F25F
:1075F00043EA020321FA04F001F0004121FA04F207
:1076000020EA020000EBD3705EEA430E08BF20EAD6
:10761000D37070BD94F0000F0FD101F00046400010
:1076200041EB010111F4801F08BF013CF7D041EA92
:10763000060195F0000F18BF704703F00046520096
:1076400043EB030313F4801F08BF013DF7D043EA67
:107650000603704794EA0C0F0CEA135518BF95EA1D
:107660000C0F0CD050EA410618BF52EA4306D1D1A4
:1076700081EA030101F000414FF0000070BD50EAC3
:10768000410606BF1046194652EA430619D094EA4D
:107690000C0F02D150EA013613D195EA0C0F05D137
:1076A00052EA03361CBF104619460AD181EA03018B
:1076B00001F0004141F0FE4141F470014FF0000043
:1076C00070BD41F0FE4141F4780170BD70B54FF0DE
:1076D000FF0C4CF4E06C1CEA11541DBF1CEA13555E
:1076E00094EA0C0F95EA0C0F00F0A7F8A4EB050440
:1076F00081EA030E52EA03354FEA013100F0888037
:107700004FEA03334FF0805545EA131343EA1263FF
:107710004FEA022245EA111545EA10654FEA0026B4
:107720000EF000419D4208BF964244F1FD0404F56D
:10773000407402D25B084FEA3202B61A65EB0305C9
:107740005B084FEA32024FF480104FF4002CB6EB86
:10775000020E75EB030E22BFB61A754640EA0C0006
:107760005B084FEA3202B6EB020E75EB030E22BF46
:10777000B61A754640EA5C005B084FEA3202B6EB87
:10778000020E75EB030E22BFB61A754640EA9C0046
:107790005B084FEA3202B6EB020E75EB030E22BF16
:1077A000B61A754640EADC0055EA060E18D04FEAD4
:1077B000051545EA16754FEA06164FEAC30343EA74
:1077C00052734FEAC2025FEA1C1CC0D111F4801F41
:1077D0000BD141EA00014FF000004FF0004CB6E73A
:1077E00011F4801F04BF01430020B4F1FD0C88BFD9
:1077F000BCF5E06F3FF6AFAEB5EB030C04BFB6EBE4
:10780000020C5FEA500C50F1000041EB045170BDD6
:107810000EF0004E4EEA113114EB5C04C2BFD4EB03
:107820000C0541EA045170BD41F480114FF0000E87
:10783000013C90E645EA060E8DE60CEA135594EA03
:107840000C0F08BF95EA0C0F3FF43BAF94EA0C0F06
:107850000AD150EA01347FF434AF95EA0C0F7FF47B
:1078600025AF104619462CE795EA0C0F06D152EACF
:1078700003353FF4FDAE1046194622E750EA4106B3
:1078800018BF52EA43067FF4C5AE50EA41047FF4C4
:107890000DAF52EA43057FF4EBAE12E74FF0FF3C29
:1078A00006E000BF4FF0010C02E000BF4FF0010CFA
:1078B0004DF804CD4FEA410C7FEA6C5C4FEA430C73
:1078C00018BF7FEA6C5C1BD001B050EA410C0CBFC2
:1078D00052EA430C91EA030F02BF90EA020F002024
:1078E000704710F1000F91EA030F58BF994208BF8B
:1078F00090422CBFD8176FEAE37040F00100704748
:107900004FEA410C7FEA6C5C02D150EA013C07D19E
:107910004FEA430C7FEA6C5CD6D152EA033CD3D0E9
:107920005DF8040B704700BF8446104662468C46E3
:107930001946634600E000BF01B5FFF7B7FF002816
:1079400048BF10F1000F01BD4DF808EDFFF7F4FF3F
:107950000CBF012000205DF808FB00BF4DF808EDCA
:10796000FFF7EAFF34BF012000205DF808FB00BFED
:107970004DF808EDFFF7E0FF94BF012000205DF80F
:1079800008FB00BF4DF808EDFFF7CEFF94BF0120C4
:1079900000205DF808FB00BF4DF808EDFFF7C4FFBD
:1079A00034BF012000205DF808FB00BF7BB972B92D
:1079B0000029BEBF00204FF0004106E008BF0028AC
:1079C0001CBF6FF000414FF0FF3000F057B8ADF131
:1079D000080C6DE904CE002909DB002B1ADB00F04E
:1079E00069F8DDF804E0DDE9022304B070474042A5
:1079F00061EB4101002B1BDB00F05CF8DDF804E0DB
:107A0000DDE9022304B0404261EB4101524263EBE5
:107A100043037047524263EB430300F04BF8DDF839
:107A200004E0DDE9022304B0404261EB410170470C
:107A3000524263EB430300F03DF8DDF804E0DDE97A
:107A4000022304B0524263EB4303704753B94AB96F
:107A5000002908BF00281CBF4FF0FF314FF0FF3056
:107A600000F00CB8ADF1080C6DE904CE00F022F87E
:107A7000DDF804E0DDE9022304B07047704700BF81
:107A800010F8012B11F8013B012A28BF9A42F7D0C8
:107A9000D01A7047034611F8012B03F8012B002A76
:107AA000F9D17047034613F8012B002AFBD1181AAD
:107AB000013870472DE9F04786468C460846089EF7
:107AC000154674461946002B40F0C2808542B2FA32
:107AD00082F245D94AB1C2F1200300FA02FC2EFA23
:107AE00003F3954043EA0C0C94404FEA154EA8B2BC
:107AF000BCFBFEF8230C0EFB18CC08FB00F943EA94
:107B00000C43994528D9EB1808F1FF3704D2994561
:107B100002D9A8F102072B44A3EB0903A4B2B3FBDB
:107B2000FEFC0EFB1C330CFB00F044EA0344A042B5
:107B300014D92C190CF1FF3304D2A04202D9ACF1B4
:107B400002032C44241A43EA07401EB1D440002308
:107B500034607360BDE8F0874746DDE76346F1E7D0
:107B600092BB431B01214FEA154EAFB2B3FBFEFCA3
:107B7000200C0EFB1C330CFB07F840EA034398452E
:107B800062D9EB180CF1FF3004D2984502D9ACF160
:107B900002002B44A3EB0803A4B2B3FBFEFC0EFBD4
:107BA0001C330CFB07F744EA0344A7424ED92C19B7
:107BB0000CF1FF3304D2A74202D9ACF102032C44EA
:107BC000E41B43EA0040C0E7C2F1200320FA03F1BE
:107BD000954090402EFA03F303434FEA154EAFB29F
:107BE000B1FBFEFC0EFB1C10190C0CFB07F841EA64
:107BF0000041884504FA02F422D969180CF1FF30DB
:107C000004D2884502D9ACF102002944A1EB080155
:107C10009BB2B1FBFEFC0EFB1C110CFB07F743EA09
:107C200001439F420ED9EB180CF1FF3104D29F4261
:107C300002D9ACF102012B44DB1B41EA004192E77F
:107C40006046E3E76146F7E76046A3E76346B7E7C8
:107C5000834206D916B9002108467BE7C6E900E051
:107C6000F9E7B3FA83F78FB9834201D3724508D895
:107C7000BEEB020460EB030301209C461EB9002109
:107C800068E73846FAE7C6E9004CF8E7C7F1200C88
:107C9000BB4022FA0CF41C432EFA0CF120FA0CF330
:107CA000B84001434FEA14490EFA07F5B3FBF9F85F
:107CB0001FFA84FE09FB18300B0C08FB0EFA43EA8E
:107CC00000439A4502FA07F240D9E31808F1FF3061
:107CD00004D29A4502D9A8F102002344A3EB0A0377
:107CE00089B2B3FBF9F809FB183308FB0EFE41EA31
:107CF00003418E452CD9611808F1FF3304D28E451B
:107D000002D9A8F10203214443EA0040A0FB0298F3
:107D1000A1EB0E014145CE46434602D306D14D4567
:107D200004D2B9EB020E68EB04030138002EA6D092
:107D3000B5EB0E0261EB030101FA0CFC22FA07F32A
:107D40004CEA0303F940C6E9003198E74046C5E72D
:107D50004346D9E7000000002DE9F047064688B009
:107D60000F4690462AF0D6FA4FF47A73A0FB0345EB
:107D700003FB0155E40B012F44EA45444FEAD53596
:107D800007D1294922462B46304624F0A8FC002082
:107D900012E0D8F8047025483946FFF771FE70B13B
:107DA00023483946FFF76CFE48B1304621493A4630
:107DB00024F0B1FC6FF0040008B0BDE8F087204665
:107DC000294617A3D3E90023FFF7F0FD05460C462B
:107DD00010461946184A0023FFF7E8FD80460F4673
:107DE000104619464EF660220023FFF7DFFD82465B
:107DF0008946104619464FF47A720023FFF7D6FDE4
:107E0000CDE902A9CDE90623CDE90401CDE900873A
:107E10000A492A462346304624F061FCB7E700BFF2
:107E2000005C260500000000E45B0500F55B050032
:107E3000F85B0500015C050080EE3600195C05006A
:107E40009FED0D7B124B134A1348144910B483ED78
:107E5000007B9FED0B7B82ED007B9FED0B7B104B3E
:107E60004FF0FF34002281ED007B04601A605DF862
:107E7000044B13F02BBB00BFFFFFFFFFFF1F0000F1
:107E800000000000000000001F00000000000000D3
:107E9000F0020020083C0020A8580020E802002042
:107EA000A05800200000000038B51B4C9DF810E0E1
:107EB00094F84CC01CF0010524D163F3420C40013E
:107EC00094F83830A4F840104FEACE0E0EF0180E99
:107ED00000F0200040EA0E0023F0380303430F486F
:107EE00084F838309121A2FB000384F84CC001FBD8
:107EF000023107A3D3E90023FFF7A8FD6064A06463
:107F0000284638BD0C25284638BD00BFAFF3008099
:107F10008D49FD1A07000000103C0020002AE7846C
:107F200010B504469DF8080022864FEA411CC000A7
:107F300094F8281000F018000CF0200C4CEA000C0B
:107F40000B4821F038014CEA010CA3FB00029121FF
:107F500084F828C001FB032103A3D3E90023FFF722
:107F600075FD606310BD00BF8D49FD1A070000005C
:107F7000002AE784000000002DE9F043044600F1E8
:107F80003A0190F84C0094F838304D4DC0F3400061
:107F900060F386138DB084F8383012F0A1F994F8AC
:107FA0003820B4F840304748246102F079020027B5
:107FB00084F838209121A3FB0002C4E902772770DE
:107FC00001FB03213CA3D3E90023FFF73FFDA26C93
:107FD0003D4B651BA3FB053502F1090398428EBF9B
:107FE00019463A46014662646160064612F02AF973
:107FF0006369C5F3871500F10907002B41D00DF126
:108000002C08CDF820800694B4F840302D484FF06D
:108010000009A3FB0002CDF80C90912101FB032184
:1080200063680493294B0793294B059302230B9311
:1080300021A3D3E90023FFF709FD104619464FF4A9
:108040007A720023FFF702FD0235EDB2CDE901603F
:1080500003213B462A46CDF80090484611F0A0FF88
:10806000414612F001FE40B994F84C3043F0010350
:1080700084F84C300DB0BDE8F0830C200DB0BDE8A5
:10808000F0830DF12C08CDE90A33616843460AAA52
:10809000032000F05DFD0028B3D10B990D4806A325
:1080A000D3E90023A1FB0001FFF7D0FC0A9B20F0DD
:1080B0007F471F44A5E700BF8D49FD1A0700000058
:1080C000103C0020002AE784CDCCCCCC49A303008F
:1080D00041C8030000CA9A3B2DE9F0418468A28C94
:1080E0004FF6FF739A428AB000F0CE8005462046D4
:1080F00016F08AFFAB7C012B00F01D81022B00F0F3
:108100000F81002B00F0EF8094F83C81B8F1000F54
:1081100040F00A81A68DEB89E78D0136B6B2002BBF
:1081200040F0B5802B7C03F00303012B00F0D680D8
:10813000B4F86831002B00F0B180B34240F23081D6
:108140009B1BA4F86831B4F86C31002B00F0C98097
:10815000B34240F223819B1B9BB2062BA4F86C31E7
:108160004FF000028CBF00230123E285984694F86B
:108170003A2063F3820284F83A2031460DF1270257
:10818000204616F0EFFC743000F00281B4F866313E
:108190002BB1B34240F2E8809B1BA4F86631B4F8DF
:1081A00062312BB1B34240F2D8809B1BA4F86231FC
:1081B00094F8B530E58D03F00101B8F1000F0AD154
:1081C000AF4200F0C6800135ADB241B9002D5BD0A1
:1081D0004146404642E00135ADB200293DD094F819
:1081E000B53094F937206FF30003002A84F8B530D6
:1081F000C0F2A78094F85A00C0F3C00100F0070055
:1082000019F038FF94F85A2094F85B1002F0030339
:108210000933C2F34002DB00D34001F0030209320C
:10822000C1F34001D200CA40E18B01F23F110B447F
:10823000134403446A4A6B480721E3FB00211046BC
:1082400065A3D3E90023FFF701FC616820F07F40BC
:10825000814280F09880411A60600020A28C2469DD
:1082600003950023604DCDF810800332CDE9011055
:1082700006940093D2B201211846059511F0ACFE88
:1082800010F0FD0F40F08E800AB0BDE8F081A4F838
:1082900068812B7C03F00303012B1FD0B4F86C31F1
:1082A000002B7FF455AFE28C052A97BF013240F2D4
:1082B000E2434FF4FA7392B203FB02F2B4F86A316C
:1082C00042F2107101FB0323013BB3FBF2F39BB2BB
:1082D000A4F86C31002B7FF43BAF02E00023A4F83C
:1082E0006C31002343E794F8723003F01803182B25
:1082F0007FF40AAF218DB4F864218B1D9A42C4BF6C
:10830000931F5B1AB4F86011CCBF9BB2134699421D
:1083100053D0A4F86031A4F86231A4F86621F3E6E2
:108320004FF03D0884F83C81414620460AB0BDE844
:10833000F04114F0B7BF0023A4F86631A4F862310D
:10834000E2E694F85B00012100F0070019F094FECA
:1083500058E7002998D0454641E70023A4F8623148
:10836000204616F073FC23E712F04EFC014600B3E2
:108370000023A4F86631A38CC3801B23037100681B
:1083800012F014FC0BE76060081A1CD0002165E7AE
:108390009DF82710204614F085FF75E70821C4E7F3
:1083A0003E21C2E712F072FC84423FF46DAF00DE62
:1083B0006AE70123A4F86631F1E6B4F866110029F2
:1083C0007FF4A2AEA7E7002DE0D1B8F1000FDDD118
:1083D0005AE700BFAFF300808D49FD1A0700000087
:1083E0008C49FD1A00CA9A3B45CB030000000000EF
:1083F0002DE9F04F8FB0B0F838610D930446B0F816
:10840000FC3090F85A000B911E44C0F3C001BDF837
:108410006830BDF86C70BDF86080BDF86490D4F829
:10842000F4A00C9300F0070019F024FEE58CB6B21E
:10843000A6EB070B052D1FFA8BFB40F2D38015FB33
:108440000BF5B8F1050FADB240F2E24B40F2D4802B
:10845000B4F85220B4F85030134403F2D513034457
:108460007B4A7C480721E3FB00214FF09613E36130
:1084700096231046238474A3D3E90023FFF7E6FA7A
:10848000434620F07F4040F2E2420BFB05F102FB45
:1084900003FB4A1E5A44B2FBFBF293B20BFB03F3FD
:1084A0009942606095B280F0B3806A48591AA1FB86
:1084B000000165A3D3E90023FFF7C8FA20F07F404D
:1084C0008244B4F8FC20B4F83831BF1B3D44ADB24F
:1084D00013442B44A4F83831638D1A4494F8373090
:1084E0001544DB09658540F0A1800D9B5948A3FB2D
:1084F000000155A3D3E90023FFF7A8FA20F07F4538
:1085000001350C9BA4F86A3159462046A4F8268010
:10851000A4F8289016F052FB4F4B218D5B44881D28
:10852000B3FBFBF39AB29042A4F8642104D2C1F5E4
:108530007F41FA310A4492B20B9BA4F8602113B137
:108540000023A4F86C31022101201BF01DFA002247
:1085500002210646012010F0AFFB40494FF4C072E3
:10856000204610F039FBC21C3D4B0093D7B201945A
:1085700053463A460121002011F0C2FD10F0FD0FD4
:108580005FD1344830A3D3E900238BFB0001FFF710
:108590005DFA08940694194663680493314B079377
:1085A000314B05934FF6FE7380460393104600232C
:1085B0004FF47A72FFF74AFA0095CDE901805346ED
:1085C0003A460121002011F0EBFC10F0FD0F36D1EE
:1085D0007EBB94F83A3143F0010384F83A310FB08E
:1085E000BDE8F08F013515FB0BF5B8F1050FADB205
:1085F0004FF4FA7B3FF62CAF4FF0961208F10103CF
:10860000E261962222849BB20A204FF4FA723CE780
:108610001048C91AA1FB00010BA3D3E90023FFF7FF
:1086200015FA20F07F40AAEB000A4AE700DE002599
:1086300067E701220221104610F03EFBC9E700DE89
:10864000C6E700DE9DE700BF8D49FD1A0700000068
:108650008C49FD1A00CA9A3B7FC3C901603C0020C7
:1086600005CB0300EDCA030045160400000000001E
:108670002DE9F04F8BB0CDE9030100209DF8548027
:10868000BDF858A0BDF85CB0BDF8609005921F46DB
:1086900014F09CF9002800F0288108F00105044638
:1086A000284611F00DFE002D4FD1636904F1100230
:1086B0000692002B50D06669356896F84A00C0F3E0
:1086C000C00100F0070019F0D5FCB6F84210B6F86A
:1086D0004020F38900F23F100A44034413449C48AD
:1086E0009C4A0721E3FB0021104697A3D3E900230E
:1086F000FFF7ACF920F07F40686094F84C100698C2
:1087000068F3420184F84C1094F8391067F30001C3
:10871000DDE9032384F8391014990968A1611499DB
:108720008988A1830599A4F8249000910021FFF77E
:10873000F7FBA06419F01AFE002840F0DA8020460A
:10874000FFF71AFC0BB0BDE8F08F062110F058FAC5
:108750000028AAD11220F5E712F010FA079000289D
:1087600000F0E48014F06EFA0546002800F0DB808B
:10877000143010F003FC05F11006002840F0DC80F6
:10878000032105F1180019F09BFBE86EA5F828B04D
:108790004FF6FF72A5F826A0AA84002800F0C88032
:1087A00005F1600205F15C0110F036FAB5F85A20C7
:1087B00022F4EF6222F0070242F48C7242F00102CE
:1087C000A5F85A2095F872204FF0000B22F007020E
:1087D00085F8722001212846C5F86CB0A5F870B064
:1087E00015F054F8A5F82AB0C5F82EB005F13200FE
:1087F00019F054F895F8372060F3050285F8372012
:1088000001210DF1270019F05BFB9DF82710524A5A
:1088100085F839B0A2FB0102D20802EB4202A1EBBB
:10882000820195F83720A5F838B102F03F0285F8AB
:10883000372095F83A20A5F86CB1053122F00702EF
:1088400040F2E24085F8381085F83A20298D434AF5
:10885000A5F86A9100FB0AFA06205244A5F86801BF
:1088600001F1060CB2FBFAF290B26045A5F866B1D0
:10887000A5F862B1A5F8640102DD0638401A80B29D
:10888000A5F86001284616F031F95146284616F041
:1088900095F94FF0000A079BC5F8403185F83CA1D7
:1088A00014F040FC95F8742160F3020285F87421FD
:1088B00014F03EFC95F8742160F3C50285F874212C
:1088C00095F83A216AF3410285F83A2105F1B8009A
:1088D00015F02CFF4FF09612C5E907226661C5E935
:1088E00002AA85F800A02D61E7E60C200BB0BDE8D8
:1088F000F08F6569EB6D2BBB05F1500105F14C0064
:1089000010F08EF9E0B12E68E865D6F84001A8B104
:1089100012F03AF9304614F09BF90023032063610A
:108920000BB0BDE8F08F079812F02EF9072009E789
:1089300005F16400E86633E700DE21E700DEE7E7E3
:1089400000DEE0E700DED7E78D49FD1A07000000F2
:1089500000CA9A3B8C49FD1AABAAAAAA7FC3C901D7
:108960002DE9F04F0446037F406A8DB01546C3F3EE
:10897000401AC3F3C012238DADF82C30E3070F4625
:108980000A9000F1CE80BDF82C300A98A2774FF003
:108990000008A4F81C80A4F82330C4F81F003B682A
:1089A0001E68EB8AE3842B8B2385B38C638519F0D7
:1089B00031FD84F82C00D5F80090484614F04EF9AB
:1089C0004146A882E080484616F00CF9D7F80480AA
:1089D0002068214612F0DEF8AB8AA8F806301C2386
:1089E000D8F8004088F80430BAF1000F40F08D80CC
:1089F000534688F81C304146204612F0D7F895F8C7
:108A00004A00B5F81680FC6840F2E243C0F3C001AA
:108A100000F0070003FB08F819F02CFB00220221EC
:108A2000241A012010F048F9304613F0A7FF424BFA
:108A3000A4FB034B05463EA3D3E900232046594639
:108A4000FFF704F80196BB683C49009120F07F468F
:108A5000AA1C363BD2B233440121002011F050FB56
:108A600010F0FD0F5FD14FF0000A0122114653466E
:108A7000CDF800A0504611F001FB484614F0EEF886
:108A800005462D482AA3D3E90023A8FB0001FEF7E1
:108A9000DDFF19462A4BBF6808932A4B069340F224
:108AA0007233CDF81C900993D9F804308046CDE993
:108AB00004A3104600234FF47A72FEF7C7FF224B3F
:108AC0000722A6FB0331CDE9028002FB0611E01A62
:108AD0006BEB01014FF47A720023FEF7B7FF033509
:108AE000363FEDB2CDE900603B462A4601215046B3
:108AF00011F002FA10F0FD0F17D1012202211046E9
:108B00000DB0BDE8F04F10F0D7B895F8273043F01E
:108B1000400385F82730281D18F016FF012328850B
:108B200067E700DE2FE700DE9DE700DEE5E700BF38
:108B30008D49FD1A0700000000CA9A3B391604004F
:108B40003D160400451604008D49FD1A0000000082
:108B50002DE9F04F8FB0FF2709930B1D08930023D9
:108B6000CDE90533DFF884A18DF82F700546164650
:108B70000C9398463C460DF134090DF1300B02235D
:108B80000D93CDE901A9CDF800B033460DF12F02C8
:108B90002946002011F0F8FA022813D00D9BBBB92A
:108BA000FF2C18D03368434515D0002F00F0878084
:108BB000013FFF24FFB28DF82F40E0E72946002057
:108BC00011F028FB0D9B022BF8D00D9B002BE7D05A
:108BD00000DEFF2CE6D19DF82F30FF2B49D0032B70
:108BE000CDD1002014F042F80028C8D090F93730D9
:108BF000002B24DA436807939DF82F30032B14D001
:108C0000FF2CDDF8308008D00599404611F01CFBA0
:108C1000089B069A134498422DD8079B9DF82F4035
:108C2000CDE90583D6F80080A9E7002014F01EF8EE
:108C30000028E5D090F93730002BE1DA9FE790F873
:108C40005A00C0F3C00100F0070019F013FA244ADB
:108C5000244B00F5935005300721E0FB0231184604
:108C60001BA3D3E90023FEF7F1FE20F07F43079317
:108C7000C2E7FF2C27D0069A1B480721A2FB00035E
:108C800001FB023114A3D3E90023FEF7DFFE044603
:108C9000B8B9059B1448013BA3FB0002072101FB67
:108CA00003210DA3D3E90023FEF7D0FE099A00F1BA
:108CB0001E032344002013600FB0BDE8F08F00DED8
:108CC00076E73E34E5E76FF009000FB0BDE8F08FBE
:108CD0008D49FD1A0700000000CA9A3B0000000001
:108CE00000CA9A3B8C49FD1A8D49FD1A49180400A7
:108CF0002DE9F043C668476873683D491A68D0F8A3
:108D00000090A7F57423A3F510738B4283B08046BF
:108D100007D907F1E87707F5D43709F1FF3907F5E7
:108D2000A57773685168DD8ACDF8049006F11003C9
:108D300001AA0220FFF70CFF00284ED10199A1EBF8
:108D400009031B0237D40846494611F07DFA034651
:108D500028480721A3FB000201FB032122A3D3E93A
:108D60000023FEF773FE34690444002C346109DBF0
:108D700040F2E24305FB03F3A3422FD2E41AA342DD
:108D8000FCD33461D8F800301A48A3EB0903A3FBE5
:108D90000002072101FB032113A3D3E90023FEF7FF
:108DA00055FE154BA3FB0737A0EB974020443061DD
:108DB00003B0BDE8F083484611F046FA03460D487B
:108DC0000721A3FB000201FB032107A3D3E9002332
:108DD000FEF73CFE3469241AC7E73469002CD1D170
:108DE00003B0BDE8F08300BF00CA9A3B000000005A
:108DF000BFBDF07F8D49FD1A83DE1B4300000000DC
:108E00002DE9F041C46894F92830002B8CB0C0F2F1
:108E1000A880636805460E46002B40F0978094F8C2
:108E200028306FF3000384F828301AF0CDF90020C1
:108E30001AF0F0F9002108461AF0DEF908200022A5
:108E400025211AF01BFA012011F0C0FF002800F0C4
:108E50008F801C301AF03CFA5F4B0B930BA81AF072
:108E6000F9F95E4940F25B601AF0AAFA94F828001A
:108E7000C0F34100253019F0C9F8594821461AF0CD
:108E800077F994F828309B0602D46368002B5AD0F7
:108E900096201AF0C3FB00231A46194618461AF00A
:108EA000F5FAD4F800802F68404619F09BF8074483
:108EB0006A6807F1090100201AF0BCFB1AF090FC67
:108EC0001AF054FB204613F065FD811CC9B24046E0
:108ED0003A4619F089F8804600284FD10EB9636BE5
:108EE000D3B963687BB12A683E4BA2616A68E261CC
:108EF00004F11801996064620122022100200FF040
:108F000011FF002838D1204619F03AF8002831D155
:108F100000200CB0BDE8F081334A0792334A059235
:108F200040F2F31200930892CDE90366CDE90166A1
:108F300006943B463146012211F032F810F0FD0F45
:108F4000CFD000DECDE71AF001FBAAE7636893F803
:108F50002A30D90705D4636893F82A309A077FF539
:108F60005EAF234821461AF003F91AF0D3F9CFE790
:108F700000DE6EE700DECBE700DEC4E71D4A1E49D7
:108F80001E4840F2E51322F06AF91D4B0721A8FBA9
:108F9000030301FB08310EA3D3E90023FEF756FDBE
:108FA00018490246184822F05AF9002585F311881D
:108FB000BFF36F8F0323184602DF144821461AF0CF
:108FC000D7F81AF0A7F96FF08B00A2E7AFF3008093
:108FD00000CA9A3B00000000D6BE898E5555550048
:108FE000B19002006C060020192404002124040022
:108FF00029210400F846050044470500A84505005E
:109000008D49FD1A7447050048470500AD2404004A
:1090100038B5044619F018FA94F8283094F8282046
:10902000C3F34103013303F00303032B08BF002301
:1090300063F3420214BF03F12500252084F82820A1
:1090400018F0E4FF63680BB123694BB911F0FAF82B
:10905000C11C00201AF062FBBDE838401AF0C0BB0A
:109060001AF08AFB054611F0EDF8C11C00201AF039
:1090700055FB1AF0B5FB1AF07FFB294611F0E4F816
:10908000094A03460721A0FB020201FB032104A3B6
:10909000D3E90023FEF7DAFC23691B1A236138BDEC
:1090A00000CA9A3B000000008D49FD1A0000000034
:1090B0002DE9F0478AB004461AF06EF9C0B250B9F3
:1090C00018F0EEFFB24821461AF052F80AB0BDE897
:1090D000F0471AF01FB91AF07FF905461AF07EFA28
:1090E00006461AF085FA1AF05BFAEDB207461AF056
:1090F0003BFA18F0D5FF002DE4D0012011F066FEF8
:109100000546002800F03E8194F8288018F0080FEA
:10911000C8F3C10AC8F3C00140F0C4802E7F626862
:10912000FFB206F00F03002A00F0C180626892F8D7
:109130002A20920700F1BB80072BC3D0A1B994F875
:109140002920C6F3801102F00102914240F0AF8065
:10915000062205F11E0104F10800079329F06BFABD
:10916000079B002840F0A380002B40F017816B7F05
:10917000063B1F2BA6D8042011F028FE0028A1D002
:109180001AF036FB636B064643B9238E40F2712218
:1091900002FB03F3B0FBF3F203FB120622687D4BE4
:1091A00052680721A2FB030301FB023176A3D3E936
:1091B0000023FEF74BFC6FF44273C3181F3B4FF0C4
:1091C000000747F1FF32B34272F10002FFF47AAFB9
:1091D0001AF0BCF994F8286063681AF00BF905F1ED
:1091E0001E03019309AB0493C6F3801604F12A030E
:1091F000029603932B7FC3F38013014606463A463B
:1092000000932046012319F04FFA30461AF066F811
:109210001AF0B8F8002840F082815F48214619F022
:10922000A7FF626892F82A3043F0010382F82A30DF
:1092300094F8283043F0800384F8283011F0E0FDE2
:10924000172303714FF6FF73C38095F81CE00746A0
:109250003346CEF3401E00F11C0206F1200C1D68BF
:1092600058689968DE68D6601033634515605060B1
:10927000916002F11002F2D11B6813603B7FBC6069
:109280006EF345133B771AF077FA099BC7E904039D
:1092900011F0B6FDF860386839460AB0BDE8F0470D
:1092A00011F0D8BDF6B2002E3FF40CAF36E7002B1C
:1092B00061D16A7F052A7FF605AF252A3FF602AF06
:1092C00008F02101202940F0B1806268002A00F0F6
:1092D000B580062B3FF6F6AE4FF0450929FA03F9A3
:1092E00019F0010940F0A180012B00F08880042BC7
:1092F0007FF4E8AE6B7F063B1F2B3FF6E3AE18F022
:10930000010F3FF4DFAE1AF075F82E7F0278C6F336
:109310008013B3EBD21F7FF4D5AE0830062205F1DF
:109320001E0129F088F900287FF4CCAE6B7F002B5A
:109330003FF4C8AE636823B106F00F06072E7FF432
:10934000C1AE032011F042FD054600283FF4BAAE3D
:1093500011F056FD4FF6FF73EB8005232B716FB9AB
:109360007F206B7E287669F3000328686B76294698
:1093700011F070FDA6E6062B9BD0AAE71AF000F9C3
:10938000C0B2EEE700DEBFE600CA9A3B0000000074
:10939000C52404008D49FD1ABD250400012BEAD126
:1093A0006A7F0C2A7FF48EAEC8F38013B3EBD61F0E
:1093B0004FEAD61900F09D80BAF1010F40F2A48067
:1093C000B9F1000F06D095F8293003F0C003402B07
:1093D0003FF4D1AEC8F38018B8EBD61F4FEAD619C8
:1093E00018D0B9F1000F3FF46DAE95F8293003F0B5
:1093F000C003402B7FF466AE4FF001099AE76A7F05
:109400000C2A7FF45FAEC8F38018B8EBD61F4FEA82
:10941000D6190FD1062205F1240104F12A0029F002
:109420000AF938B94FF0000984E76A7F063A1F2A23
:10943000F8D947E6BAF1010FD3D843E69620079250
:109440001AF0ECF8079A104619F0D8FF032011F033
:10945000BDFC064600283FF435AE11F0D1FC4FF6B6
:10946000FF73F38005233371002F54D17F23727E65
:1094700033766FF3000272763146306811F0EAFC01
:1094800019F0B8FF0378032262F3030303702B7F04
:109490000278C3F3801363F3C7120C230270437086
:1094A00094F82830D2B2C3F3801363F386120346D4
:1094B00003F8022BD4F82A20C0F80220E28D9A800B
:1094C000D5F81E3083606B8C838119F007FF19F08B
:1094D00059FF30BB1AF084F994F82830124843F051
:1094E0000103214684F828300AB0BDE8F04719F09E
:1094F0003FBE062205F1240104F12A0029F09BF861
:1095000000283FF438AE57E7C8F38019B9EBD61FEF
:109510007FF4D8AD7EE71AF033F8C3B2A7E700DED8
:109520007BE600DED6E700BFD9240400000000007F
:10953000F0B5C468A28A4FF6FF739A4285B000F076
:10954000AE80054619F08CF92B89628B208CA383A1
:109550001A4492B2104494F82730E28380B2411C3E
:1095600021845E064FF00001618304F1220167D47B
:1095700003F03F000B4694F82810009004F12900F6
:1095800018F09AF90646204603A919F0A9FA039B98
:1095900094F862101A7861F3C3021A70039A94F86F
:1095A00062301178C3F3400363F38201117019F044
:1095B0000BFE002019F02EFE201D19F04BFE238912
:1095C000A17A40F25B6043EA014119F0F9FE3046AE
:1095D00018F01CFD0399204619F056FA214636482A
:1095E00019F0C6FDE0891AF019F894F84B0000F064
:1095F000070019F003FF27682E68384618F0F2FCC0
:10960000064406F109016A6801201AF013F81AF0FD
:10961000E7F8A18A03313246C9B2384618F0E4FCB3
:109620000646A8B1AB7A13F0020517D000252348EF
:10963000214619F09DFD19F06DFE284605B0F0BDDC
:109640000A4603F03F03218D18F082F906469AE797
:10965000204618F095FC48BB0025EEE7184A19494A
:1096600019484FF4807321F0FAFD18480721A6FB32
:10967000000301FB06310EA3D3E90023FEF7E6F950
:1096800013490246134821F0EAFD85F31188BFF320
:109690006F8F0323184602DF6FF08B05C7E70E4874
:1096A000214619F065FD19F035FED5E700DED3E758
:1096B00000CA9A3B00000000E529040009210400CB
:1096C0008847050044470500A84505008D49FD1A57
:1096D000D847050048470500292104000000000084
:1096E0002DE9F84F2DED028B81468846002219F8AE
:1096F0000230202B02F1010100F0CE81A3F109001C
:10970000042840F2C9812B2B0D4634D02D2B37D0A5
:109710001846042440F02003692B33D06E2B6CD004
:1097200000224FF00A0A964694461346114614F456
:10973000006677D040F02007A7F1610BBBF1050F61
:1097400070D8573FFFB2574580F0058144F080063E
:10975000E005B6B274D5F40506F4007040F18680D9
:10976000002F18BF4CF0010C00B9013219F80500A8
:1097700034460135DBE7042419F80100951CC9E7DC
:109780004424F9E79FEDB68BBB4B13F8011B51B195
:1097900019F8052042F020028A4205F1010030D07C
:1097A000B64A93423AD1B0EE480AF0EE680A29F080
:1097B000BCF950B119F80530282B06D1013519F83C
:1097C0000530292B05F101051DD1630607D518EEDB
:1097D000901A18EE102A01F1004343EC182BB8F14F
:1097E000000F02D04D44C8F80050B0EE480AF0EE29
:1097F000680ABDEC028BBDE8F88F9FED9B8BA04BF8
:10980000C3E70546C1E723F02002413A192AD6D919
:10981000A3F13002092AD2D95F2BD0D09FED948BCF
:109820000025DCE7A0F13007FFB257452ED244F007
:10983000800614F48070B6B28DD1BAF10A0F06D04A
:10984000BEF10F0F87DD44F4C076B6B283E7BEF1F8
:10985000100F80DD44F4C076042FB6B27FF67BAFE4
:10986000052F08BF07464FF0020C74E700B1013A1C
:10987000AAFB0334FB180AFB014444F1000153EA3C
:1098800001003FF473AF0EF1010E6FE7FE2F62D1BE
:10989000A7055CD52006C1D5002E40F09F8053EA75
:1098A000010005F1FF3500F0F480200540F1BA8099
:1098B0003632B1F5800FC0F09A80724FB1F5000FCB
:1098C00080F09980BA42C0F296804CEA030303F01C
:1098D0000306032E084604D003F00606062E40F0C9
:1098E0009380043341F10000B0F5000FC0F08C808C
:1098F0000132B2F5806F80F2C98000234FF48011ED
:1099000002F2FF3221F480111E4641EA025747EC71
:10991000186BB0EE480AF0EE680A21F0A9F9013898
:10992000022804D829F0BAF9574B22221A50B0EE77
:10993000480AF0EE680A21F09BF9013802283FF648
:1099400044AF29F0ABF9504B22221A503DE744F4C2
:109950000076B6B20AE740F02000782804F08007CD
:1099600009D147B153EA010A05D144F40066B6B201
:109970004FF0100AFAE6002F3FF450AF86B3920082
:10998000702686428BD119F805002B2805F10106B7
:1099900004D02D2826D144F48064A4B219F806001E
:1099A000A0F13006092E3FF67AAFAE1C354640F2E4
:1099B000D34A00264FF00A0B5645DCBF30380BFB6C
:1099C000060619F80500A0F13007092F05F1010579
:1099D000F2D9670548BF7642324460E72E20CEE7D1
:1099E0006526CEE7A0F13007092FDFD957E7DB184E
:1099F0004941013A5DE75E0846EAC17603F001039A
:109A000033434908013259E7B2F5806F3EDA9B08CB
:109A1000B0F5800F43EA80734FEA9001BFF470AF56
:109A2000002271E70EEB020010F5A27F12DDB0F507
:109A30009B7F2BDA03F0010040EA0C000130800824
:109A4000181841F1000100F033F8B0EE408AF0EE52
:109A5000608A6CE79FED068B69E700BFAFF300807B
:109A6000000000000000F07F000000000000F87F10
:109A700000000000000000001D8E0500208E050083
:109A80001A8E050002FCFFFF0C0000009FED048B06
:109A90004DE79FED058B98E60A4628E6AFF3008078
:109AA000000000000000F07F000000000000000047
:109AB0002DE9FF47804616460F46002900F0A28098
:109AC000B1FA81F4341B002E04F10A04C0F2A28022
:109AD000304620F0AFFF0444304620F0B1FFA4EB45
:109AE000060905466946304620F0D2FFA9EB05037A
:109AF0007D336A464046394628F026FEA642824615
:109B00000D4600F38380B9F13F0F00F381804FF0E1
:109B1000FF33A9F1200003FA00F003FA09F2C9F1BA
:109B20002001024323FA01F10A4303FA09F328EA68
:109B3000030327EA020213430CBF01200020002D7B
:109B400000F08A80B5FA85F3E31A03F23E4340F24F
:109B5000FE72934200F38980002B23EAE376CCBFA8
:109B600032460122121BA2F23341C1F1200CA2F2B3
:109B70003447A2F253442AFA01F305FA0CFC43EAF3
:109B80000C0325FA04F4C7F1200EA2F2544C23432F
:109B900005FA0EFE2AFA07F425FA0CFC44EA0E0434
:109BA00044EA0C0414F0010F25FA01F1C7F1200C6E
:109BB000A2F2544254D0A8B14FF0FF3000FA02F2A2
:109BC00000FA07F4144320FA0CF2B84014432AEACE
:109BD000000A03F0010225EA04054AEA020A5AEAE9
:109BE000050A3DD0013341F10002C2F3130253EAEA
:109BF000020138D0184642EA065141EC100B04B07D
:109C0000BDE8F087B0FA80F420345BE7012096E7E6
:109C1000002094E7C6F10009484620F011FF241AFD
:109C2000484620F00DFFA61B0546694648462E44CF
:109C300020F0A2FF06F17C036A464046394628F030
:109C400083FD82460D464046394620F009FF814596
:109C50008CBF0020012072E7BAFA8AF3203373E741
:109C6000C1F31302C6E70136C4E79FED010BC6E757
:109C7000000000000000F07F70B501F063FC00F010
:109C8000F7FB2B4C034638B12268560704D0294A0B
:109C90000121204622F09DFA00F056FD034638B11E
:109CA0002268550704D0244A2148012122F091FA64
:109CB00001F030FB034638B12268500704D01F4A38
:109CC0001B48012122F085FA00F0E8FF034638B175
:109CD0002268510704D01A4A1548012122F079FA66
:109CE00001F054FE034638B1226852070ED0154ADF
:109CF0000F48012122F06DFA236803F00703022BBD
:109D000004D9114A0A48032122F05AFA0F4E084D8D
:109D10004FF42030002128F054FA236803F00703A1
:109D2000022BF5D903213246284622F049FAEFE703
:109D3000440900201A4B0500354B0500514B050026
:109D4000684B0500844B0500A14B0500F34B050053
:109D50000128024605D0044B0448022A08BF1846D1
:109D600070470348704700BF084C0500104C0500C1
:109D7000024C050008B5024922F0B1FC002008BDE4
:109D8000184C05002DE9F0410E46CEB00446FF21E7
:109D90003046904628F08EFC0EAF0546024631460E
:109DA000384628F018FC002337497B5542462046A8
:109DB00022F095FC35493246204622F090FC294697
:109DC0006A46384600F018FD051E08DA30492A4672
:109DD000204622F0A0FC28464EB0BDE8F0816A463D
:109DE0002C49204622F07BFC9DF820002A49FFF7F1
:109DF000AFFF0246204622F072FCDDE9022327492C
:109E0000204622F06CFCDDE904232549204622F09F
:109E100066FCDDE906232349204622F060FC224946
:109E20009DF82120204622F05AFC9DF82130D907C8
:109E30001AD5099A1D49204622F051FC9DF821307F
:109E40009A0716D5DDE90A231949204622F047FC76
:109E50009DF821305B0711D5DDE90C23154920461B
:109E600022F03DFC0025B6E71349204622F037FCDE
:109E7000E4E71249204622F032FCE9E71049204687
:109E800022F02DFCEEE700BF1E4C05002A4C050019
:109E9000344C0500464C05005A4C05006E4C05003C
:109EA000844C05009A4C0500B04C0500C64C0500DA
:109EB000F44C0500244D0500DA4C05000A4D050060
:109EC0003A4D050038B5084A08490546FFF75AFFDC
:109ED000074A084904462846FFF754FF30EA2400A1
:109EE00028BF204638BD00BF544D0500585305001B
:109EF000604D0500F952050010B58CB0044608A865
:109F000001F048FC05A801F069FD01F00FFC0B9B76
:109F100002930A9B0193099B00930246089B074901
:109F2000204622F0DCFB079B00932046DDE9052359
:109F3000034922F0D4FB00200CB010BD844D050075
:109F4000C34D050010B5044601F0A6FB20460249AA
:109F500022F0C5FB002010BDED4D050070B50229B3
:109F600094B00446164607D0234922F0D4FB6FF084
:109F70001505284614B070BD506806A920F0D9FE1A
:109F8000054628B172681D49204622F0C4FBF0E75F
:109F90009DF83800FFF7DCFE0346DDE90A01CDE954
:109FA0000201DDE908019DF839200492CDE90001A4
:109FB00006AA1349204622F092FB9DF83930D907B2
:109FC00004D50F9A0F49204622F089FB9DF83930BD
:109FD0009A0705D5DDE910230B49204622F07FFBC7
:109FE0009DF839305B07C4D5DDE9122307492046C7
:109FF00022F075FBBDE700BFF94D0500184E0500C6
:10A00000274E0500564E0500634E0500724E0500B2
:10A010002DE9F04F04460D46D1E90220D4E9103174
:10A02000B2EB030A94F8293095B060EB010913F004
:10A03000010F0BAE45D0E36A294A0C2130461FF0D0
:10A0400035F994F8293013F0020F0EAF3ED0D4E961
:10A050000C230C21CDE900233846224A1FF026F9B3
:10A0600094F8293013F0040F0DF1440833D0D4E9EB
:10A070000E230C21CDE9002340461A4A1FF016F9A1
:10A0800094F82800D5F800B0FFF762FECDE908A9E2
:10A09000CDE9057804960346D4E90601CDE902012D
:10A0A000D4E9040104F10802CDE9000158460E4943
:10A0B00022F015FB2B69012001332B6115B0BDE89F
:10A0C000F08F0A493046FDF7E5FCBAE70749384604
:10A0D000FDF7E0FCC4E705494046FDF7DBFCCFE7B0
:10A0E0004A540500824E0500874E050006640500AF
:10A0F00030B5A5B00546202200210DF1360028F02C
:10A1000092FA01238DF830300E238DF831304CF661
:10A11000EF53ADF83230AB23ADF834304CF28F232F
:10A12000ADF83A3042F6F503ADF83C3047F65C73D3
:10A13000ADF83E304CF23B03ADF8403047F691634A
:10A14000ADF8423043F6FB23ADF8443042F27003E1
:10A15000ADF8463044F26303ADF8483040F6AC53F6
:10A16000ADF84A30FA23ADF84C305A23ADF84E30F2
:10A1700028F0D0F84FF47A74A0FB043204FB0122DB
:10A18000DB0B43EA424316A90CA8CDF8523000F08D
:10A19000ADFF044638B102461349284622F0BBFA07
:10A1A000204625B030BD9DF87800FFF7D1FD03466D
:10A1B000DDE92201CDE90801DDE92001CDE9060153
:10A1C000DDE91A01CDE90201DDE918019DF87920E8
:10A1D0000A921F9A0492CDE9000116AA0349284663
:10A1E00022F07DFADCE700BFCA4E0500E54E05000F
:10A1F00010B590B0044604A800F060FF0AA801F072
:10A2000093F8089B0393079B9DF8240002930F4942
:10A21000069B0F4A0193059B0093002818BF0A462E
:10A22000049B0C49204622F05AFA0F9B03930E9B85
:10A2300002930D9B01930C9B00932046DDE90A23BA
:10A24000054922F04CFA002010B010BD2B4F05003C
:10A250002F4F0500324F0500774F050010B504461B
:10A2600000F096FE2046024922F039FA002010BD87
:10A27000C84F050010B5044600F07EFE2046024996
:10A2800022F02DFA002010BDDE4F050010B5044667
:10A2900000F07CFC2046024922F021FA002010BD8B
:10A2A000EC4F050010B58AB0044605A800F08EFA00
:10A2B000099B0293089B0193079B00932046DDE9CD
:10A2C0000523034922F00BFA00200AB010BD00BF9D
:10A2D000FA4F050070B586B00446009028F01AF8D1
:10A2E0004FF47A75A0FB053205FB0121DB0B43EA35
:10A2F0004143C90BCDE902310026204607490496A7
:10A3000022F0EDF96946064801F024FA2046049A45
:10A31000044922F0E4F9304606B070BD465005000D
:10A3200011A002007C50050013B540494048414C43
:10A3300023F07CFD0346C0B12268500704D03E4A9A
:10A340000121204621F045FF394823F0B8FC03469F
:10A35000002853D02268510704D0384A35480121DB
:10A3600021F037FF002002B010BD3549304823F0FE
:10A370005DFD034620B122685107E5D0314ADFE791
:10A3800031492B4823F052FD034620B12268520781
:10A39000DAD02E4AD4E72E4A0146254824F010F898
:10A3A000024628B123685B07CED02A4A0346C7E796
:10A3B00029491F48012324F0DEF8024628B123680A
:10A3C0005807C1D01346254ABAE701232449184843
:10A3D00024F0D1F8034640B1226812F0060F04D0F1
:10A3E000204A0221204621F0F4FE01230093EF22AF
:10A3F000022300210E4823F039FCA5E70C4823F086
:10A400008EFC034638B122685207ABD0164A094881
:10A41000012121F0DEFE236803F00703022BA1D9FE
:10A42000124A0448032121F0CBFE9BE7540300208D
:10A43000880C002078090020DF53050087540500B0
:10A440003C030020F35305002403002006540500BC
:10A45000F80200201D5405002C5405003654050058
:10A460004D5405005754050095540500A5540500AA
:10A4700008B50E4827F0FBFA03460D484BB90368B0
:10A480005B0703D00B4A012121F09AFE6FF0120006
:10A4900005E0036803F00703022B01D8002008BD84
:10A4A000054A032121F08CFEF8E700BFD42D0500FA
:10A4B000800900200B5505003955050073B5044689
:10A4C000C8B1104D284627F0D2FAA0B1002301935D
:10A4D000AB689B6C1BB101AA042128469847019BDD
:10A4E0004BB1084E013C14F8011F31B9AB68054867
:10A4F0005B680A21984702B070BDAB6830465B6864
:10A500009847F0E7D42D0500024883681B6A03B121
:10A5100018477047D42D0500F0B5334F334E91B036
:10A520000446A368DB6B002B53D1A3689B6B002B05
:10A5300054D13B78002BF4D1A368DB6A1BB12046D1
:10A5400098470028EDD0B289B3889B1A32699BB234
:10A55000D31A402B1A4628BF402243B9A3685B6A2E
:10A560000BB12046984701233B7011B0F0BDA368A2
:10A570001B69002BF9D0694620469847051EF4DD7B
:10A580002A466946304621F018FD8542184B0ED9FF
:10A59000EFF31182202181F31288BFF36F8F996846
:10A5A0000D442D1A9D6082F31188BFF36F8FEFF376
:10A5B0001181202282F31288BFF36F8F1A68024440
:10A5C0001A6081F31188BFF36F8F0A481DF0DAFA21
:10A5D000A7E7204698470028A7D1C6E72046984716
:10A5E0000028A6D1C1E700BFFC6A00206C03002050
:10A5F00068430020EC0A00202DE9F04F4A4DAFB02F
:10A600004FF0000800AF4948DFF824914FF0FF32C7
:10A610004FF0FF331DF0F0FA07F1380A444880226A
:10A62000514621F0EAFC044698B942490B78002BC8
:10A63000E9D0B9F80C20B9F804309B1AD9F81020E9
:10A640009BB2D31AB3F5807FDDD90870FFF75CFFAA
:10A65000D9E700261AF806300D2B26D00A2B4DD14B
:10A66000B8F1000F1FD0002341463A46284605F8AE
:10A67000083000F0C1F8DFF8C88001460023C0B9F7
:10A68000384600F07FFFEFF31182202383F3128816
:10A69000BFF36F8FD8F804300133C8F8043082F369
:10A6A0001188BFF36F8F4FF000080136A642D1D159
:10A6B000B2E72148026812F0060F12D0EB468AB0CA
:10A6C0006A46DFF880C0D561C2E905C140F20131B8
:10A6D00011841A4942F8101F4FF4125102F018FF6A
:10A6E000DD46EFF31182202383F31288BFF36F8FCF
:10A6F000D8F810300133C8F81030D0E7B8F5FF7F34
:10A700000DD9EFF31181202383F31288BFF36F8FEC
:10A710000B4AD3680133D36081F31188C1E705F890
:10A72000083008F10108C0E7FC680020EC0A0020AE
:10A730006C030020FC6A00207C090020040000015A
:10A74000684300207A55050038B51A4D1A4C284642
:10A7500027F08DF950B923685A0704D0174A012110
:10A76000204621F02DFD6FF012000FE0AB6873B1B1
:10A770001B6C63B11249002228469847FFF7C4FEBC
:10A78000236803F00703022B0ED8002038BD23688E
:10A790005B0706D00B4A08486FF05703012121F0F0
:10A7A00018FD6FF05700F1E7074A0321204621F01A
:10A7B00007FDEAE7D42D05007C090020935505002C
:10A7C00019A50200B7550500DB55050070B5044614
:10A7D000EFF31186202383F31288BFF36F8F054DAB
:10A7E0000FCD0FC42B68236086F31188BFF36F8FE2
:10A7F00070BD00BF68430020F0B50E4693B014460C
:10A80000054620B96FF01505284613B0F0BD002AA3
:10A81000F8D00029F6D002AB40220021184627F0DC
:10A8200002FF31460090394A0923284602F0B8FA5F
:10A830000029064601DA0546E6E740F28F13034099
:10A840006FF4C7700344002BDCD102980028D9D0E4
:10A850002F49FDF715F905460028D3D1039F002F96
:10A86000D0D0109B002BCDD038220146204627F0B7
:10A87000DAFE0621384627F01DFF039907460246F7
:10A88000204627F0A8FEDDE90423E555C4E90223AC
:10A89000DDE90623C4E90423DDE90E23109F1D49E9
:10A8A000C4E906233846FDF7EBF860B31A49384689
:10A8B000FDF7E6F8B0FA80F35B095B00F10684F877
:10A8C000203007D594F8213043F0010384F821307B
:10A8D000089B6362B20609D594F8213043F0020365
:10A8E00084F82130DDE90A23C4E90A2373068BD5F5
:10A8F00094F8213043F0040384F82130DDE90C237F
:10A90000C4E90C2380E70123D8E700BF483A0500DB
:10A9100022560500024C0500084C05000F4A10495C
:10A92000002310B513700F4A0A600F4A4A600122D3
:10A930000A814FF6FF720B74CA810DF093F903463A
:10A9400050B10A48026812F0060F05D0BDE8104069
:10A95000074A022120F0D4B910BD00BFFD6A0020D3
:10A96000B4430020F0070020A1A90200EC08002059
:10A970004C56050010B50B46044641B10648026826
:10A9800012F0060F03D0054A022120F0B9F9204643
:10A99000BDE81040FFF7C2BFEC080020615605007B
:10A9A00038B50B4659B92348036813F0060F1CD07D
:10A9B000214B224A1B78022120F0A2F915E01E4902
:10A9C0000A781AB1012A12D0012038BD1B8A01224F
:10A9D0000A701B491B4A0A6001330B814FF6FF7353
:10A9E000CB8103230B740DF03DF90020EDE7DB680C
:10A9F00015499B88154C0B812380154D0D60013343
:10AA00004B818A810DF0B2FE03460A4843B113F12F
:10AA1000780F05D0026812F0060FE6D00D4ACAE79B
:10AA2000036803F00703022BDFD923880A4A014891
:10AA30000321C1E7EC080020FD6A00208F560500C5
:10AA4000B4430020DF0700209C430020DC68002086
:10AA50005DAA0200AD560500C356050038B5104684
:10AA6000F2B1EFF31181202585F31288BFF36F8FC8
:10AA7000124C22680132226081F31188BFF36F8F7C
:10AA8000262B0ED0EFF3118285F31288BFF36F8F60
:10AA900063680133636082F31188BFF36F8F012015
:10AAA00038BD00F00DFCEFF3118285F31288BFF37F
:10AAB0006F8FA3680133A360EDE700BF7C430020E4
:10AAC000F8B500AF044624F03CFD244B244A18603E
:10AAD000244B0120187000231370234A1380EFF3D6
:10AAE0001185202282F31288BFF36F8F1F4AD1682D
:10AAF00010750144D16085F31188BFF36F8F1C4D31
:10AB00002A6802F00702022A12D96E4688B06A4605
:10AB100018495161184991614FF4007191831749A7
:10AB200042F8101F4FF4E651284602F0F1FCB546FA
:10AB30001349144B0B6020460DF064F8034658B1DE
:10AB40002A6812F0060F04D00F4A0948022120F0AB
:10AB5000D7F82046FFF7E2FEBD46F8BDC843002007
:10AB6000056C0020066C0020DC6800207C4300207F
:10AB7000EC080020F8560500085705000300000106
:10AB80009843002075A90200155705001FB5114C08
:10AB90002378CBB9104B1B78B3B9104903933022FB
:10ABA000CDE9011201A80E4909F032FE034668B151
:10ABB00010F1780F0AD00B48026812F0060F03D08C
:10ABC000094A022120F09CF804B010BD0123237033
:10ABD000FAE700BF076C0020066C0020010060004F
:10ABE000E9AD0200EC0800204C57050038B5164DC1
:10ABF00028680C4618B10AF077F800232B60134B35
:10AC000000221A70124B1A80EFF31180202383F375
:10AC10001288BFF36F8F0F4B19691A7501311961D3
:10AC200080F31188BFF36F8F0B48036803F00703AD
:10AC3000022B04D9094A2346032120F061F8BDE81C
:10AC40003840FFF7A3BF00BFC8430020066C0020B8
:10AC5000DC6800207C430020EC08002061570500E0
:10AC600008B50B4679B10A48026812F0060F03D006
:10AC7000084A022120F044F8074B00221A70BDE870
:10AC80000840FFF783BFBDE80840FFF719BF00BFCA
:10AC9000EC0800207E570500056C0020B0B588B098
:10ACA000182208AF0021284827F0BDFC4FF480721D
:10ACB0000021264827F0B7FC254B00201860254BC3
:10ACC00000240025C3E9004508F014FE044622488C
:10ACD00003684CB15B0704D0204A2346012120F0D1
:10ACE0000FF82046BD46B0BD03F00703022B12D972
:10ACF0006D462A4688B01A4B6B611A4BAB614FF414
:10AD00000073AB83184B42F8103F4FF4E6512346D3
:10AD100002F0FEFBAD46FFF739FF00220023CDE92C
:10AD2000062300230722CDE90323CDE90133009355
:10AD30000E490F4B0F484FF480621DF093FA0E49F5
:10AD40000C481DF0BDF9CCE77C430020056B0020CA
:10AD500094430020400F0020EC080020915705008C
:10AD60009F570500085705000300000100760020EA
:10AD70007DAD0200380E0020BD57050070B5164CA1
:10AD8000164D174E00214FF4803027F01AFA27F0A5
:10AD9000C1FA2378002BF5D12B78002BF2D1337830
:10ADA000002BEFD14FF47A72A0FB020302FB0131BA
:10ADB000C30B0C48D0E9002043EA41439B1A4FEAF9
:10ADC000D13140F2D17261EB0001934271F1000187
:10ADD000D8DBFFF7DBFED5E7066C0020056C002012
:10ADE000076C0020400F00202DE9F04FDFF87C9128
:10ADF0001D4699F800308FB00446002B40F0898042
:10AE0000504E3178002940F08480012A00F2818080
:10AE1000192207A827F007FC4B4907AA284607F084
:10AE200021FA9DF83430002B73D0484907A8FCF76D
:10AE300027FE074600286CD1DFF834A1DFF8348103
:10AE4000DAF80050C346BD4266DC082D1BD00BEB80
:10AE50004518172207A9404627F01CFC6F01002364
:10AE600088F8173007F1180321684BF803100BEB33
:10AE70000302A3889380A379937101231D4488F86A
:10AE80001F30CAF80050324B22681A60A2889A809C
:10AE9000A2799A713378002B3BD199F80070002F7A
:10AEA00037D12C4D2B7813B109F002FD2F700123FF
:10AEB000337027F02FFA4FF47A72A0FB020302FBE3
:10AEC00001310023244D0093C00B244B40EA414044
:10AED000C90BC5E900010FCB03AD85E80F00204A7F
:10AEE0004FF0C873CDE9012329466B4601AA2046DD
:10AEF0000AF0CAFB0346F0B11A48026812F0060FC6
:10AF000003D0194A02211FF0FBFE00233370FFF724
:10AF10003DFE0FB0BDE8F08F98F81F303BB107221F
:10AF2000214608F1180027F086FB0028ABD0013736
:10AF300008F1200887E700980028EAD009F0D4FE3D
:10AF4000E7E700BF056C002005AD040008570500C9
:10AF5000FE6A0020076C0020400F002030350500FD
:10AF600018002800EC080020C4570500066C0020DB
:10AF700094430020056B002010B5044C23781BB1CE
:10AF800009F096FC0023237010BD00BF076C002061
:10AF9000044B1B782BB1044B186810B1132124F01B
:10AFA000EBBA7047066C0020C84300202DE9F04F33
:10AFB000DFF8FC80D8F8002093B006462AB92E4965
:10AFC00013B0BDE8F04F21F08ABB2C492C4CDFF8C0
:10AFD000E4A0DFF8E4B021F082FB0027D8F80030CD
:10AFE000BB4211DC274B1B78002B43D1264B274A51
:10AFF0001978274B002918BF1A462649304613B046
:10B00000BDE8F04F21F06BBB237E07AD032B2BD89F
:10B01000DFE803F0022426281F492846FCF73AFD02
:10B020000595637E0493A37E0393E37E0293237FBF
:10B030000193637F00930DF12809A37F174A1E2116
:10B04000484601371EF032F923461549CDF80090E5
:10B050003A46304621F043FB2034BFE75946DCE74F
:10B060005146DAE70F49D8E70F4A0A2128461EF071
:10B070001DF9D5E70D4AC0E7E95705001D58050041
:10B08000056B0020066C0020076C0020E4570500CB
:10B09000EA4B0500855805002F580500515805005A
:10B0A0007458050047580500FE840500DA5705006E
:10B0B000944300203D5805003658050070B50446FD
:10B0C000EFF31186202383F31288BFF36F8F064DB1
:10B0D0000FCD0FC495E8030084E8030086F31188C0
:10B0E000BFF36F8F70BD00BF7C430020F8B50D46E5
:10B0F000044690B189B10378012B11D9EFF3118186
:10B10000202383F31288BFF36F8F524AD368013331
:10B11000D36081F31188BFF36F8F6FF015008AE061
:10B12000D0F80230B3F1807F0BD3EFF311812023ED
:10B1300083F31288BFF36F8F464A1369013313619B
:10B14000E7E7D0F80E70D0F80A60434B0022304693
:10B150003946FCF703FCC8B9404B0022304639465B
:10B16000FCF71AFC90B9D4F81260D4F816703C4B76
:10B17000002230463946FCF7F1FB38B93946394BE5
:10B1800000223046FCF708FC014658B1EFF311816C
:10B19000202383F31288BFF36F8F2E4A5369013344
:10B1A0005361B6E73822284627F03DFAD4F802303A
:10B1B0002D4A23F07F43072128461EF077F8D4F864
:10B1C0000A20D4F80E30C5E90223D4F81220D4F8AE
:10B1D0001630C5E90423D4F82200FCF7D3F8234B3A
:10B1E0000022FCF773FAC5E906012378012B14BF8E
:10B1F0000123022385F820306378990708D595F854
:10B20000213043F0010385F82130B4F91A306B6224
:10B2100063785A070BD595F8213043F0020385F87F
:10B220002130B4F91C00FCF7BDF8C5E90A016378C8
:10B230001B0701D40020F8BD95F8213043F004032A
:10B2400085F82130B4F91E00FCF7ACF8C5E90C0113
:10B25000F0E700BFCC430020008056C0008056407D
:10B26000008066C0008066409C58050000408F400A
:10B2700030B5114D114C99B04FF0FF3269464FF087
:10B28000FF3328461CF020FB0AA96846FFF72EFF73
:10B290000028F1D1EFF31182202383F31288BFF34A
:10B2A0006F8FA3680133A36082F31188BFF36F8FA0
:10B2B0000AA800F067F9DFE7440A0020CC43002029
:10B2C00038B5014608B3EFF31182202585F31288C3
:10B2D000BFF36F8F0D4C23680133236082F3118815
:10B2E000BFF36F8F0A480022002326F0A4FC60B150
:10B2F000EFF3118285F31288BFF36F8F6368013318
:10B30000636082F31188BFF36F8F38BDCC43002098
:10B31000440A002008B518220021024827F083F9CA
:10B32000002008BDCC43002070B50446EFF3118621
:10B33000202383F31288BFF36F8F064D0FCD0FC408
:10B3400095E8030084E8030086F31188BFF36F8F4C
:10B3500070BD00BFCC43002038B5084B1C680546C3
:10B360000CB9204638BD0722294604F1080027F011
:10B370007FF90028F5D02468F2E700BFF4430020ED
:10B3800030B589B00C4D0D4900220023CDE90623CC
:10B3900000240823CDE90334CDE90144084B00948F
:10B3A0004FF4806228461CF05DFF064928461CF0D9
:10B3B00087FE204609B030BD5010002000830020D9
:10B3C000E5B30200B358050002460B4601481CF0E5
:10B3D000DFBA00BF300A002001481CF051BB00BF9B
:10B3E000300A00202DE9F04F4B4E83B000AF002112
:10B3F0004FF4803026F0E5FE4FF0FF304FF0FF3184
:10B40000FFF7E2FF26F086FF4FF47A72A0FB0203FB
:10B41000346802FB0131C50B45EA41454FEAD13B97
:10B4200034B1D4F80090DFF810A14FF0000814B93F
:10B43000FFF7D2FFDBE7D4E9102342F21171AA1A19
:10B440006BEB03038A4273F100035ADB2368B8F104
:10B45000000F3BD172683360944200D173600023C7
:10B4600023602E4B1B6803F00703022B29D9D4E974
:10B47000103194F82820B5EB030C6BEB0101012A85
:10B4800004F108002AD0DFF8B4E0254B022A08BFF7
:10B490007346C7F804D08CB06A46DFF8A4E0936224
:10B4A000204BD362204BC2E905E0C2E908C142F853
:10B4B000103F1A48002344F2C00102F029F8D7F8DF
:10B4C00004D01A4B9C420BD1002311E0C8F8003085
:10B4D00073689C4208BFC6F80480C0E7144BD8E7E5
:10B4E000124A00230133202B05D048329442F9D16F
:10B4F000104A0021D154DAF808300133CAF8083074
:10B500004446B9F1000F05D0D9F80030A0464C46AA
:10B5100099468CE74B46F9E7F4430020E808002001
:10B52000104C05000002020607000002581100201E
:10B53000024C0500086C0020E4430020084C050084
:10B54000BD58050010B50B4B0B48002421462022A6
:10B55000C3E9004427F067F821464FF4106207481A
:10B5600027F061F821460648BDE81040102227F078
:10B570005AB800BFF4430020086C00205811002086
:10B58000E44300202DE9F8430546002878D00378ED
:10B59000002B75D04FF0FF304FF0FF31FFF714FF55
:10B5A0002846FFF7D9FE064618B300F108040FCD70
:10B5B0000FC40FCD0FC40FCD0FC495E8030084E86E
:10B5C000030026F0A7FE4FF47A72A0FB020302FBF1
:10B5D00001312D4AC00B536840EA4140C90BC6E90E
:10B5E0001001013353600024FFF7F6FE2046BDE84A
:10B5F000F883264B1A4613F8018BB8F1000F32D1AD
:10B6000001239355DFF88C904822564306EB090737
:10B610004146384627F007F80FCD07F108040FC45C
:10B620000FCD0FC40FCD0FC495E8030084E80300CD
:10B6300026F070FE4FF47A72A0FB020302FB013188
:10B64000134BC00B5A6840EA4140C90BC7E91001CF
:10B6500049F806808AB9C3E900770B4A13680133B9
:10B6600013600124C0E70136202EC4D1064AD368F6
:10B670000133D3606FF00B04B6E717605F60ECE74F
:10B680006FF01504B2E700BFE4430020086C00200F
:10B69000F443002058110020F8B54FF0FF304FF070
:10B6A000FF31FFF791FE1D4A136823B119681C4E44
:10B6B0001C4F002543B91C481022002126F0B3FF7F
:10B6C000BDE8F840FFF788BE1068002448B1834207
:10B6D00011D118684CB954681060A34200D1506071
:10B6E0001D60B3420AD1002010E020605068834200
:10B6F00008BF5460F4E704460068E7E7084C002000
:10B700000130202803D04834A342F9D13D5419B167
:10B7100008680B460146CDE70846FAE7F4430020E7
:10B7200058110020086C0020E443002010B54FF0B1
:10B73000FF304FF0FF31FFF747FE054B1B68002439
:10B740001BB9FFF749FE204610BD1B680134F7E71F
:10B75000F443002070B50E460546C0B14FF0FF30EF
:10B760004FF0FF31FFF730FE094B186820B1046835
:10B7700010B13146A84718B9BDE87040FFF72CBE9C
:10B780001CB1236820461C46F2E72346FAE770BD49
:10B79000F443002010B54FF0FF3104464FF0FF3066
:10B7A000FFF712FE034B0FCB84E80F00BDE81040FB
:10B7B000FFF712BEE443002030B50D4A13681F2B7B
:10B7C00013DC591C0B4D116000F10804382202FBF8
:10B7D00003550FCC0FC50FCC0FC50FCC0FC594E888
:10B7E000030085E80300012030BD0020FCE700BF16
:10B7F000FC430020581A00202DE9F04FC5B0EFF3AC
:10B800001182202383F31288BFF36F8F524F3B685E
:10B8100001333B6082F31188BFF36F8F0026DFF89E
:10B8200058814E48C8F800603146FFF793FF4C4DF1
:10B83000DFF84891DFF848A1DFF848B1D8F80030C8
:10B84000B34208DC4FF48042002346481CF032FC2F
:10B8500045B0BDE8F08FD5E90423CDE90223D5E951
:10B8600002234FF48071CDE9002304A82B464A46F9
:10B870001DF01CFDFF28044662D895F82130D90739
:10B880000AD5C0F5807104A820446B6A364A1DF0C1
:10B890000DFD0444FF2C53DC95F821309A070DD59B
:10B8A000D5E90A23CDE9002304ABC4F5807118194A
:10B8B0002E4A1DF0FBFC0444FF2C41DC95F821309E
:10B8C0005B070DD5D5E90C23CDE9002304ABC4F506
:10B8D00080711819264A1DF0E9FC0444FF2C2FDC66
:10B8E00095F8202004AB012A95ED067B03EB0400BC
:10B8F000C4F5807122D01F4BDFF88CC0022A18BF1C
:10B9000063468DED007B029352461DF0CFFC04444C
:10B91000FF2C15DC04A8FEF7D1FDEFF311822023E4
:10B9200083F31288BFF36F8F7B6801337B6082F3F0
:10B930001188BFF36F8F013638357FE75B46E0E74C
:10B94000EFF31182202383F31288BFF36F8FBB685C
:10B950000133BB60EBE700BF00440020B9B7020031
:10B96000581A002058210020235905002D590500A0
:10B9700039590500084C0500FC430020EE5805002D
:10B9800045590500024C0500104C050008B50E4B4A
:10B990000E490F480022C3E900229A6026F024FBDA
:10B9A00000230B484FF480421CF084FB09480368D5
:10B9B00003F00703022B05D9074A4FF4FA7303215A
:10B9C00020F007FC002008BD00440020F9B7020069
:10B9D00058210020340900205F59050010B50346A6
:10B9E000EFF31184202282F31288BFF36F8F044A91
:10B9F00007CA83E8070084F31188BFF36F8F10BD77
:10BA0000004400202DE9F04F91B08407009302F02C
:10BA100004030293C2F3C20303F10103DDF868805B
:10BA2000039205460E46059340F0BA81041D30B1DD
:10BA3000072909D86FF01B0011B0BDE8F08F01F0A5
:10BA400007063444C6F10806009B4FF00009591E52
:10BA50004FF0040A4FF0FF330193CDF810904F469A
:10BA6000CB4653460DB1009820600598002800F39E
:10BA7000E8809848009A824203D397488242C0F0F7
:10BA8000E080039AA4EB050E92074FEA9E0000F1B6
:10BA900003810F2F00F2B180002D00F0058107F126
:10BAA00040020DEB020C019A0CF8200C0CF8102C43
:10BAB000049801300490E7E07A285DD84B280ED82E
:10BAC000472859D829282DD8252852D054D820289D
:10BAD0007AD02338D0F1000B4BEB000B74E04C38DC
:10BAE0002E2849D8DFE800F07048484848484848C0
:10BAF000484848484B484848484848484859484BAF
:10BB00004B595959704B6D487048184B184848822A
:10BB10007F4B48484B487F0000204FF0000B4FF010
:10BB2000040A38E02A38C0B2012202FA00F010EA12
:10BB30000E0F49D110F0625C2FD110EA020B43D0F6
:10BB40006046013C5444B4FBFAF40AFB04F4002DB3
:10BB500061D0A3EB050CA444B4453FF66BAF0028BD
:10BB600068D1042B47D158F8043B236004340423E4
:10BB70002AE0019A013A01924FF0000B24E011F8FB
:10BB8000010C6C2834D111F8023C00206C2B834648
:10BB9000C5D14FF0080A5346D3E708F1070828F04B
:10BBA00007080734F8E802AB24F0070435B106981B
:10BBB0002044B0423FF63EAFC4E900AB08344FF03A
:10BBC000000B4FF0080A534611F8010F002878D0F7
:10BBD000BBF1000F7FF470AF2528F5D1019B013335
:10BBE00001934FF0010B4FF0040AECE7584694E73D
:10BBF00000208346A5E7082B02D06FF015001BE755
:10BC000008F1070828F00708B8EC027B84ED007BF8
:10BC100008340823D8E768B9042B02D108F10408D6
:10BC2000A4E7082BE9D108F1070828F0070808F174
:10BC30000808EDE705980138059058F8040B0090C6
:10BC400010E7039A900720D5A4EB050E4FEA9E005B
:10BC50004FF0010CBEF5007FCFD20F2FCDD8F5B13C
:10BC600007F140020DEB020EC0B2019A0EF8200C53
:10BC70000EF8102CBCF1000F3FF41AAF60F07F00FB
:10BC80000EF8200C09F101090137C5F1080204344E
:10BC900006924FF6DA7E97E74FF0000CDAE7BCF138
:10BCA000000F01D00136EFE7029A0236002AEBD1ED
:10BCB0000098CDE90631FBF7F5FEDDE906310644D3
:10BCC000E2E7631BB3F5806F97D23DB9A6F1080494
:10BCD000E018B1E6B02C05003C8E0500029A286001
:10BCE0009B082B709DF81030C2B1EB7085F8029064
:10BCF000B9F1000F05D008A80022C5F1010C974248
:10BD00000ED1C5F101030DF120084FF0000A019397
:10BD10000DF1300B574512D1601B8DE66B70E5E7D6
:10BD200010F8013B190608D50CEB040EB64503F0DC
:10BD30007F033FF67FAE04F8013B0132DFE7B9F144
:10BD4000000F03D098F90020002A17DB029BD3B123
:10BD50001AF80B2004F8012B0022019B181910443B
:10BD6000B0423FF667AE98F8000004F8010B009966
:10BD70000392204626F02FFC039A14440AF1010A8C
:10BD800008F10108C6E798F8002055F82230009322
:10BD9000029B45F822300098FBF784FE421CDCE74A
:10BDA0006FF00D0048E600BF2DE9F04F97B000AFEF
:10BDB00090F802A0D7F880B03B62CBF3C0030446F2
:10BDC000FA62BB61894641B9457800780AEB800088
:10BDD00020444D4517D8A0EB0409E378FB61BAF184
:10BDE000000F02D01BF0010F16D1FB6953BBFB6A99
:10BDF0001BB13A6A4946204698474D4628465C376B
:10BE0000BD46BDE8F08F461C3046FBF74BFE0130C7
:10BE1000304409F10109DCE7237862687A62FA6A42
:10BE20009900796104EB8301002A40F004814D46BA
:10BE30000E4601EB0A094FF000084E4550D101EBC8
:10BE40000A0610E01BF0020FD1D023789A007A6125
:10BE500062687A62FA6A04EB8301002A7BD14D465C
:10BE600001EB0A0690461BF0050F0CBF02230123CD
:10BE7000FB62FB6906EB430A0BF00203BB6256450B
:10BE8000BCD016F8021B16F8013C54F823909B4BCB
:10BE9000994502D39A4B99453AD3BB69002B44D0BC
:10BEA000786A1FF076F900283FD09648036813F0AF
:10BEB000060F13D0E9468AB06A46934B53617B6AFA
:10BEC000C2E906314FF400731384904B42F8103FDF
:10BED00000234FF4125101F01BFBCD46023DCEE78B
:10BEE00016F8013BF96254F82300FBF7DBFDD7F8A5
:10BEF0008430F96A01304BB1D7F8883098453EBF9D
:10BF0000D7F8843023F8180008F10108054494E7B5
:10BF1000BB6923B1786A1FF03CF90028C5D11BF03A
:10BF2000010F05D1FB6AED1AA9E7BB6A002BA6D069
:10BF30004846FBF7B7FDD7F8843053B1D7F88830BF
:10BF400098453FBFD7F88420431C22F8183008F1E9
:10BF50000108054493E7BAF1000F72D01BF0040604
:10BF600072D0D046002607F1480052463B61B962C4
:10BF700026F031FBB96A3B6901EB0A02BA62FA6941
:10BF8000F9695200FA60BA6A02EB41023A610BF0B9
:10BF90000202BA603A69B96A8A4257D162787A6213
:10BFA0001BF0020F32440CBF4FEA580100211BF076
:10BFB000010FD2B240F09F801BF0040F14BF404627
:10BFC0000020BB616270A070E1703A6A7969FB6A17
:10BFD00020469847051EFFF611AFBB6923707B6AA8
:10BFE0006370FB69E37041463A6AFB6A84F802A019
:10BFF00007F148009847B0F10008C0F2BB807B69A8
:10C000003A6AA9EB0A01C91AFB68C91AD7E90A03F7
:10C0100098470028C0F2B080A84408EB00054FF014
:10C02000000B07F1380AB34572D300213A6AFB6A64
:10C0300008469847E2E656464FF0000807F13800F8
:10C0400093E75646D04697E7B04695E7BA6A12F8A6
:10C05000021BBA6212F8015C284A54F8250090428B
:10C0600002D3274A90421ED3BA6932B1786A7B6004
:10C070001FF08FF87B6800288CD1BA6802BB08F1EA
:10C08000280207F1300C08F10100944407F158022E
:10C0900052FA80F008F102080CF8101C5FFA88F8D8
:10C0A00000F8105C76E7BA693AB1786A7B601FF0F5
:10C0B00070F87B6800287FF46DAF1BF0010F09D08A
:10C0C00006F1280207F13000711C161806F8205CF2
:10C0D000CEB25FE71BF0040F3FF45CAF08F128021B
:10C0E00007F1300008F1010102EB000808F8105CCC
:10C0F0005FFA81F84EE7002063E700BFB02C05002F
:10C100003C8E05002C090020945905000400000114
:10C110001BF80A3087F8373054F82390D7F884306A
:10C120002BB3D7F888309B4521D2D7F8843033F829
:10C130001B803A6AFB6A012107F137009847002803
:10C140001ADB0544B8F1000F06D14846FBF7AAFCFC
:10C1500000F101081FFA88F83A6AFB6A414648462E
:10C160009847002808DB05440BF1010B5BE74FF013
:10C170000008DEE7454641E605463FE630B50446A1
:10C18000EFF31185202383F31288BFF36F8F044BE5
:10C190000FCB84E80F0085F31188BFF36F8F30BD9C
:10C1A0008821002001281FB50C4605D0042822D084
:10C1B0006FF0150004B010BD26F0ACF8174AC30BA1
:10C1C000C0F30E00A0FB0202C00B43EA414340EA69
:10C1D0004240C90BC4E90031A0606846FFF7CEFFBA
:10C1E000694620461EF0FAFF18B90D4B0FCB84E8C4
:10C1F0000F000020DEE726F08DF8084AC30BC0F3DD
:10C200000E00A0FB0202C00B43EA414340EA424059
:10C21000C90BC4E90031A060EBE700BF00CA9A3B3C
:10C220001035050001287FB50C4634D18A681B4BB8
:10C230009A4230D826F06EF8C20B42EA414252428E
:10C240004FEAD13363EB4303CDE90023144AC0F333
:10C250000E00A0FB0202C30B43EA42436D465B4261
:10C260002846029300F0C8F8214628461EF0B6FF83
:10C27000EFF31186202383F31288BFF36F8F95E8C5
:10C280000F00084C84E80F0086F31188BFF36F8F0E
:10C29000002004B070BD6FF01500FAE7FFC99A3BAB
:10C2A00000CA9A3B88210020014B1860704700BFEC
:10C2B0008003002080B505460E46174698461CF0C0
:10C2C0002DFB034626F0EAFCDFF81890044649F8F7
:10C2D0000030424630463946A84754F8090004F079
:10C2E00047FA00BF080000002DE9F84344690569DA
:10C2F000C76840F26C73E1170135E41841F10001A1
:10C30000022D8CBF00230123E41A61F100010029F2
:10C31000064607F1FF3751DA6FF4C77020184FF463
:10C32000C8724FF0000361F10001FBF73FFB264BA1
:10C3300003FB0044D6E90083B6684FEAE37C4FF084
:10C340003C0E99466346C6FB0E93A9FB0EC60EFB38
:10C350000366A30840F26D1E022D0EFB0433024655
:10C360003B448CBF6FF00200092064270544B4FBF6
:10C37000F7F499201B1B154C45431CEB080C4FF0A0
:10C38000050005F10205B5FBF0F5A2FB04202B44E6
:10C3900004FB010146EBE87698180D4A41F10003D1
:10C3A00080180C4A63F10003A0FB020102FB031199
:10C3B00010EB0C0041EB0601BDE8F8834FF4C872A6
:10C3C00000232046B1E700BF70FEFFFFB13A020034
:10C3D0009405F5FF8051010010B5FFF785FF024677
:10C3E00026F05CFC0B4603490024445010461946D5
:10C3F00010BD00BF0C00000070B5204B82689A424F
:10C4000016DDD0E90016012976F1000503F10103DC
:10C4100092FBF3F34FEAE3741DDAC91844EB060408
:10C42000C0E90014164901FB03238360012070BD9D
:10C43000002AFBDAD0E900410029124EA3EB0203E7
:10C44000B3FBF6F310DA01F100459C4275F10005EB
:10C450000ADA0020EBE7CD439D426FF00045A5EBE3
:10C460000605A541D9DAF4E7E41A61F1000106FBFB
:10C470000322C0E900418260D8E700BFFFC99A3BB0
:10C48000003665C400CA9A3B2DE9F047058B044687
:10C490002807904611D4022905F0070540F0CC800A
:10C4A00020461FF06DF978B10138218B042811D88E
:10C4B000DFE800F0C2106D85950001290CBF45F042
:10C4C000100545F02005258388F31188BFF36F8F91
:10C4D000BDE8F08701F0070AAA4500F0A580002713
:10C4E000B9463E46A368002B00F0BC8041F008012D
:10C4F000218388F31188BFF36F8FA168002900F0B2
:10C50000BA800D68002900F0B680D1F80480334667
:10C5100052462046C047002D76D02B6829461D463E
:10C52000F0E701F007035A1F012A1BD8002221F06F
:10C530000701062B276889B2C4E9002209D13B46CE
:10C5400003E0628B013262831B68002BF9D141F05A
:10C550000201218320461FF013F900287AD041F010
:10C56000200176E0042B0AD121F0070189B2218352
:10C5700020461FF005F910B141F020012183218BE5
:10C5800001F0070AAA454FD00027B946AAE7236958
:10C5900021F0070141F00601062DD3F80090218318
:10C5A0002DD1B9F1000F3FD041F00801218388F36C
:10C5B0001188BFF36F8F3A492046C84729E021F020
:10C5C0000701236941F0040189B2042DD3F80490D6
:10C5D0002183E6D000273E464FF0040A82E721F08F
:10C5E0000701236941F0050189B2052DD3F80890B0
:10C5F0002183D6D000273E464FF0050A72E7002778
:10C600003E464FF0060A6DE72B4687E7B9F1000F6B
:10C61000D1D1EFF31188202383F31288BFF36F8FFA
:10C62000238B23F008032383258BEA062ED525F0E0
:10C630001003238305F007056669218B002EBFF6E2
:10C6400070AF00232768C4E9003321F0070141F0EF
:10C6500001012183218B01F0070AAA454FF000094F
:10C660007FF440AF002F9CD041F00801218388F374
:10C670001188BFF36F8F002FC8D03D68394633460D
:10C68000524620461FF0A8F82F46F4E7AB067FF588
:10C690001BAF25F02003238305F0070500E700BF4B
:10C6A00005B8040070B5364E846844600146012523
:10C6B00008461FF08BF930B921230B748B684C614D
:10C6C0008B614B6070BD5C284AD108461FF07EF933
:10C6D000752805DC5B280ADC2228E9D02F28E7D062
:10C6E00021230B748B684C618B610020E9E7A0F17A
:10C6F0005C0305FA03F33342DAD17528F0D108461A
:10C700001FF064F9A0F13003092B04D920F02000B8
:10C7100041380528E4D808461FF058F9A0F1300345
:10C72000092B04D920F0200041380528D8D8084624
:10C730001FF04CF9A0F13003092B04D920F02000A0
:10C7400041380528CCD808461FF040F9A0F1300345
:10C75000092BADD920F0200041380528A8D9BFE722
:10C760002228A5D18B680874013BC1E905438B6081
:10C770004B6008461FF02AF98B680248A1E700BF0A
:10C7800041044401C1CC020038B58368013B836099
:10C7900004461FF01BF9662805460ED074280ED1FA
:10C7A0000A4920461FF01EF948B9636863610848CA
:10C7B000A3682574A361636038BD0649F1E72123AE
:10C7C0002374636863610020A368F3E7485A050097
:10C7D000C1CC02004C5A050008B5014608461FF0BE
:10C7E000F5F8A0F13003092BF8D9A0F12D03012BA6
:10C7F000F4D96528F2D02B28F0D08B680448302279
:10C800000A744A68013BC1E905238B604B6008BD8F
:10C81000C1CC020010B58368013B044683601FF061
:10C82000D5F8A368492803F1FF33A36013D04E283D
:10C8300003D02D2811D10C4900E00C4920461FF0EF
:10C84000D1F850B930232374636863610848A36842
:10C85000A361636010BD0749F0E721232374636877
:10C8600063610020A368F3E7555A0500515A05009B
:10C87000C1CC0200565A05007B2805D8652806D889
:10C88000382813D821280DD86FF015007047663866
:10C89000094BC0B2C34013F0010F14BF00206FF06A
:10C8A000150070472238054BC0B2F3E75B280CBF78
:10C8B00000206FF01500704709E0200001C07B00E8
:10C8C00070B500244C60C668034601209A68B242E5
:10C8D00002D16FF015001AE0157834B1B5F12204D9
:10C8E00018BF012401329A60F0E75D2D10D10138A4
:10C8F000F8D10C68121B01324A60094A1A609A6822
:10C90000013A9A609A610A685A615F221A7470BD8E
:10C91000222D03D05B2DE5D10130E3E70124E1E7CF
:10C92000C1CC02002DE9F341044682680F4F92F812
:10C93000008026F0B3F9002313700E46C35105465C
:10C940000A22606801A91CF089FE3060A36883F8A0
:10C950000080E85918B1404202B0BDE8F081A268F9
:10C96000019B9A4218BF6FF01500F5E70C0000001C
:10C970002DE9F341044682680F4F92F8008026F0BB
:10C980008DF9002313700E46C35105460A226068D4
:10C9900001A91CF071FF3060A36883F80080E8599A
:10C9A00018B1404202B0BDE8F081A268019B9A42F2
:10C9B00018BF6FF01500F5E70C0000002DE9F341FA
:10C9C00004468268104F92F8008026F067F9002331
:10C9D00013700E46C35105460A22606801A91CF077
:10C9E000B3FEC6E90001A36883F80080E85918B1D6
:10C9F000404202B0BDE8F081A268019B9A4218BF94
:10CA00006FF01500F5E700BF0C0000002DE9F341C1
:10CA100004468268104F92F8008026F03FF9002308
:10CA200013700E46C35105460A22606801A91CF026
:10CA300089FFC6E90001A36883F80080E85918B1AE
:10CA4000404202B0BDE8F081A268019B9A4218BF43
:10CA50006FF01500F5E700BF0C0000002DE9F34171
:10CA6000044682680F4F92F8008026F017F90023E1
:10CA700013700E46C351054601A960681CF040FCC6
:10CA800086ED000AA36883F80080E85918B1404297
:10CA900002B0BDE8F081A268019B9A4218BF6FF016
:10CAA0001500F5E70C0000002DE9F341044682680B
:10CAB0000F4F92F8008026F0F1F8002313700E4615
:10CAC000C351054601A96068FCF70AFE86ED000B1C
:10CAD000A36883F80080E85918B1404202B0BDE86D
