:020000022000DC
:1070000080EC0020813403004B0B05006D3403003D
:107010006D3403006D3403006D3403000000000084
:107020000000000000000000000000009535030093
:107030006D34030000000000F53403006D340300DC
:107040003938030015480400393803003938030083
:107050003938030039380300393803003938030060
:107060003938030039380300393803003938030050
:107070003938030039380300393803003938030040
:107080003938030039380300393803003938030030
:107090003938030039380300393803003938030020
:1070A0003938030039380300393803003938030010
:1070B0003938030039380300393803003938030000
:1070C00039380300393803003938030039380300F0
:1070D00039380300393803003938030039380300E0
:1070E00039380300393803003938030039380300D0
:1070F00039380300393803003938030039380300C0
:1071000081F0004102E000BF83F0004330B54FEA58
:1071100041044FEA430594EA050F08BF90EA020FC5
:107120001FBF54EA000C55EA020C7FEA645C7FEA58
:10713000655C00F0E2804FEA5454D4EB5555B8BF7B
:107140006D420CDD2C4480EA020281EA030382EAEC
:10715000000083EA010180EA020281EA0303362D7E
:1071600088BF30BD11F0004F4FEA01314FF4801C51
:107170004CEA113102D0404261EB410113F0004F63
:107180004FEA03334CEA133302D0524263EB43031A
:1071900094EA050F00F0A780A4F10104D5F1200EB8
:1071A0000DDB02FA0EFC22FA05F2801841F1000113
:1071B00003FA0EF2801843FA05F359410EE0A5F1E7
:1071C00020050EF1200E012A03FA0EFC28BF4CF018
:1071D000020C43FA05F3C01851EBE37101F00045CE
:1071E00007D54FF0000EDCF1000C7EEB00006EEBDB
:1071F0000101B1F5801F1BD3B1F5001F0CD3490865
:107200005FEA30004FEA3C0C04F101044FEA4452BB
:1072100012F5800F80F09A80BCF1004F08BF5FEA42
:10722000500C50F1000041EB045141EA050130BD22
:107230005FEA4C0C404141EB0101013C28BFB1F534
:10724000801FE9D291F0000F04BF01460020B1FA7F
:1072500081F308BF2033A3F10B03B3F120020CDA52
:107260000C3208DD02F1140CC2F10C0201FA0CF030
:1072700021FA02F10CE002F11402D8BFC2F1200C95
:1072800001FA02F120FA0CFCDCBF41EA0C0190404B
:10729000E41AA2BF01EB0451294330BD6FEA040494
:1072A0001F3C1CDA0C340EDC04F11404C4F120027F
:1072B00020FA04F001FA02F340EA030021FA04F391
:1072C00045EA030130BDC4F10C04C4F1200220FAE8
:1072D00002F001FA04F340EA0300294630BD21FA26
:1072E00004F0294630BD94F0000F83F4801306BFEC
:1072F00081F480110134013D4EE77FEA645C18BFE0
:107300007FEA655C29D094EA050F08BF90EA020F76
:1073100005D054EA000C04BF1946104630BD91EA6E
:10732000030F1EBF0021002030BD5FEA545C05D171
:107330004000494128BF41F0004130BD14F58004B0
:107340003CBF01F5801130BD01F0004545F0FE4124
:1073500041F470014FF0000030BD7FEA645C1ABF59
:10736000194610467FEA655C1CBF0B46024650EA90
:10737000013406BF52EA033591EA030F41F40021BC
:1073800030BD00BF90F0000F04BF0021704730B542
:107390004FF4806404F132044FF000054FF0000117
:1073A00050E700BF90F0000F04BF0021704730B5D8
:1073B0004FF4806404F1320410F0004548BF4042AD
:1073C0004FF000013EE700BF42004FEAE2014FEA02
:1073D00031014FEA02701FBF12F07F4393F07F4FDD
:1073E00081F06051704732F07F4208BF704793F0E0
:1073F0007F4F04BF41F40021704730B54FF46074F3
:1074000001F0004521F000411CE700BF50EA0102F5
:1074100008BF704730B54FF000050AE050EA01029E
:1074200008BF704730B511F0004502D5404261EB0E
:1074300041014FF4806404F132045FEA915C3FF44F
:10744000D8AE4FF003025FEADC0C18BF03325FEAEC
:10745000DC0C18BF033202EBDC02C2F1200300FA9D
:1074600003FC20FA02F001FA03FE40EA0E0021FAC2
:1074700002F11444BDE600BF70B54FF0FF0C4CF4B0
:10748000E06C1CEA11541DBF1CEA135594EA0C0F62
:1074900095EA0C0F00F0DEF82C4481EA030621EA9D
:1074A0004C5123EA4C5350EA013518BF52EA0335D8
:1074B00041F4801143F4801338D0A0FB02CE4FF08A
:1074C0000005E1FB02E506F00042E0FB03E54FF0BA
:1074D0000006E1FB03569CF0000F18BF4EF0010EB2
:1074E000A4F1FF04B6F5007F64F5407404D25FEAAE
:1074F0004E0E6D4146EB060642EAC62141EA555161
:107500004FEAC52040EA5E504FEACE2EB4F1FD0CA2
:1075100088BFBCF5E06F1ED8BEF1004F08BF5FEA20
:10752000500E50F1000041EB045170BD06F00046D2
:1075300046EA010140EA020081EA0301B4EB5C047F
:10754000C2BFD4EB0C0541EA045170BD41F4801177
:107550004FF0000E013C00F3AB8014F1360FDEBF9C
:10756000002001F0004170BDC4F10004203C35DA78
:107570000C341BDC04F11404C4F1200500FA05F3FB
:1075800020FA04F001FA05F240EA020001F000429C
:1075900021F0004110EBD37021FA04F642EB060112
:1075A0005EEA430E08BF20EAD37070BDC4F10C043C
:1075B000C4F1200500FA04F320FA05F001FA04F200
:1075C00040EA020001F0004110EBD37041F10001EC
:1075D0005EEA430E08BF20EAD37070BDC4F12005F7
:1075E00000FA05F24EEA020E20FA04F301FA05F25F
:1075F00043EA020321FA04F001F0004121FA04F207
:1076000020EA020000EBD3705EEA430E08BF20EAD6
:10761000D37070BD94F0000F0FD101F00046400010
:1076200041EB010111F4801F08BF013CF7D041EA92
:10763000060195F0000F18BF704703F00046520096
:1076400043EB030313F4801F08BF013DF7D043EA67
:107650000603704794EA0C0F0CEA135518BF95EA1D
:107660000C0F0CD050EA410618BF52EA4306D1D1A4
:1076700081EA030101F000414FF0000070BD50EAC3
:10768000410606BF1046194652EA430619D094EA4D
:107690000C0F02D150EA013613D195EA0C0F05D137
:1076A00052EA03361CBF104619460AD181EA03018B
:1076B00001F0004141F0FE4141F470014FF0000043
:1076C00070BD41F0FE4141F4780170BD70B54FF0DE
:1076D000FF0C4CF4E06C1CEA11541DBF1CEA13555E
:1076E00094EA0C0F95EA0C0F00F0A7F8A4EB050440
:1076F00081EA030E52EA03354FEA013100F0888037
:107700004FEA03334FF0805545EA131343EA1263FF
:107710004FEA022245EA111545EA10654FEA0026B4
:107720000EF000419D4208BF964244F1FD0404F56D
:10773000407402D25B084FEA3202B61A65EB0305C9
:107740005B084FEA32024FF480104FF4002CB6EB86
:10775000020E75EB030E22BFB61A754640EA0C0006
:107760005B084FEA3202B6EB020E75EB030E22BF46
:10777000B61A754640EA5C005B084FEA3202B6EB87
:10778000020E75EB030E22BFB61A754640EA9C0046
:107790005B084FEA3202B6EB020E75EB030E22BF16
:1077A000B61A754640EADC0055EA060E18D04FEAD4
:1077B000051545EA16754FEA06164FEAC30343EA74
:1077C00052734FEAC2025FEA1C1CC0D111F4801F41
:1077D0000BD141EA00014FF000004FF0004CB6E73A
:1077E00011F4801F04BF01430020B4F1FD0C88BFD9
:1077F000BCF5E06F3FF6AFAEB5EB030C04BFB6EBE4
:10780000020C5FEA500C50F1000041EB045170BDD6
:107810000EF0004E4EEA113114EB5C04C2BFD4EB03
:107820000C0541EA045170BD41F480114FF0000E87
:10783000013C90E645EA060E8DE60CEA135594EA03
:107840000C0F08BF95EA0C0F3FF43BAF94EA0C0F06
:107850000AD150EA01347FF434AF95EA0C0F7FF47B
:1078600025AF104619462CE795EA0C0F06D152EACF
:1078700003353FF4FDAE1046194622E750EA4106B3
:1078800018BF52EA43067FF4C5AE50EA41047FF4C4
:107890000DAF52EA43057FF4EBAE12E74FF0FF3C29
:1078A00006E000BF4FF0010C02E000BF4FF0010CFA
:1078B0004DF804CD4FEA410C7FEA6C5C4FEA430C73
:1078C00018BF7FEA6C5C1BD001B050EA410C0CBFC2
:1078D00052EA430C91EA030F02BF90EA020F002024
:1078E000704710F1000F91EA030F58BF994208BF8B
:1078F00090422CBFD8176FEAE37040F00100704748
:107900004FEA410C7FEA6C5C02D150EA013C07D19E
:107910004FEA430C7FEA6C5CD6D152EA033CD3D0E9
:107920005DF8040B704700BF8446104662468C46E3
:107930001946634600E000BF01B5FFF7B7FF002816
:1079400048BF10F1000F01BD4DF808EDFFF7F4FF3F
:107950000CBF012000205DF808FB00BF4DF808EDCA
:10796000FFF7EAFF34BF012000205DF808FB00BFED
:107970004DF808EDFFF7E0FF94BF012000205DF80F
:1079800008FB00BF4DF808EDFFF7CEFF94BF0120C4
:1079900000205DF808FB00BF4DF808EDFFF7C4FFBD
:1079A00034BF012000205DF808FB00BF4FEA410C06
:1079B0007FEA6C5C02D150EA013C0AD14FEA430CE9
:1079C0007FEA6C5C02D152EA033C02D14FF0000026
:1079D00070474FF0010070474FEA410212F5001264
:1079E00015D211D56FF47873B3EB625212D94FEA06
:1079F000C12343F0004343EA505311F0004F23FAF0
:107A000002F018BF404270474FF00000704750EA44
:107A1000013005D111F0004008BF6FF00040704701
:107A20004FF00000704700BF7BB972B90029BEBF9C
:107A300000204FF0004106E008BF00281CBF6FF097
:107A400000414FF0FF3000F057B8ADF1080C6DE980
:107A500004CE002909DB002B1ADB00F069F8DDF801
:107A600004E0DDE9022304B07047404261EB4101CC
:107A7000002B1BDB00F05CF8DDF804E0DDE90223FD
:107A800004B0404261EB4101524263EB4303704753
:107A9000524263EB430300F04BF8DDF804E0DDE90C
:107AA000022304B0404261EB41017047524263EB54
:107AB000430300F03DF8DDF804E0DDE9022304B003
:107AC000524263EB4303704753B94AB9002908BFD8
:107AD00000281CBF4FF0FF314FF0FF3000F00CB812
:107AE000ADF1080C6DE904CE00F022F8DDF804E0F9
:107AF000DDE9022304B07047704700BF10F8012B86
:107B000011F8013B012A28BF9A42F7D0D01A7047DA
:107B1000034611F8012B03F8012B002AF9D1704715
:107B2000034613F8012B002AFBD1181A01387047BD
:107B30002DE9F04786468C460846089E1546744651
:107B40001946002B40F0C2808542B2FA82F245D934
:107B50004AB1C2F1200300FA02FC2EFA03F3954069
:107B600043EA0C0C94404FEA154EA8B2BCFBFEF859
:107B7000230C0EFB18CC08FB00F943EA0C43994593
:107B800028D9EB1808F1FF3704D2994502D9A8F19A
:107B900002072B44A3EB0903A4B2B3FBFEFC0EFBCC
:107BA0001C330CFB00F044EA0344A04214D92C1906
:107BB0000CF1FF3304D2A04202D9ACF102032C44F1
:107BC000241A43EA07401EB1D44000233460736096
:107BD000BDE8F0874746DDE76346F1E792BB431B0C
:107BE00001214FEA154EAFB2B3FBFEFC200C0EFB99
:107BF0001C330CFB07F840EA0343984562D9EB18A5
:107C00000CF1FF3004D2984502D9ACF102002B44AC
:107C1000A3EB0803A4B2B3FBFEFC0EFB1C330CFB6E
:107C200007F744EA0344A7424ED92C190CF1FF335D
:107C300004D2A74202D9ACF102032C44E41B43EA6C
:107C40000040C0E7C2F1200320FA03F195409040C4
:107C50002EFA03F303434FEA154EAFB2B1FBFEFC1D
:107C60000EFB1C10190C0CFB07F841EA004188457B
:107C700004FA02F422D969180CF1FF3004D28845C5
:107C800002D9ACF102002944A1EB08019BB2B1FB7F
:107C9000FEFC0EFB1C110CFB07F743EA01439F425D
:107CA0000ED9EB180CF1FF3104D29F4202D9ACF18E
:107CB00002012B44DB1B41EA004192E76046E3E707
:107CC0006146F7E76046A3E76346B7E7834206D914
:107CD00016B9002108467BE7C6E900E0F9E7B3FAE8
:107CE00083F78FB9834201D3724508D8BEEB0204F3
:107CF00060EB030301209C461EB9002168E738466B
:107D0000FAE7C6E9004CF8E7C7F1200CBB4022FABD
:107D10000CF41C432EFA0CF120FA0CF3B84001438A
:107D20004FEA14490EFA07F5B3FBF9F81FFA84FE7F
:107D300009FB18300B0C08FB0EFA43EA00439A4586
:107D400002FA07F240D9E31808F1FF3004D29A454D
:107D500002D9A8F102002344A3EB0A0389B2B3FBC2
:107D6000F9F809FB183308FB0EFE41EA03418E4582
:107D70002CD9611808F1FF3304D28E4502D9A8F13D
:107D80000203214443EA0040A0FB0298A1EB0E014C
:107D90004145CE46434602D306D14D4504D2B9EB08
:107DA000020E68EB04030138002EA6D0B5EB0E02DC
:107DB00061EB030101FA0CFC22FA07F34CEA03031E
:107DC000F940C6E9003198E74046C5E74346D9E7A0
:107DD000F0B52DED048B012983B006460D461446FF
:107DE0002CD95068002103F04BF8022DB0EE409AD8
:107DF000F0EE609A2BD0A068002103F041F8032D2B
:107E0000B0EE408AF0EE608A1ED0E0682DF039FEB8
:107E1000B0EE481AF0EE681AB0EE490AF0EE690AC0
:107E200001F096F9831C074614D11F49304627F00C
:107E30005AFE384603B0BDEC048BF0BD9FED188BA5
:107E4000B0EE489AF0EE689A4FF0FF30E0E79FED11
:107E5000148BF9E728B102461449304627F043FE57
:107E6000E7E7012D16D9022D626817D0032DA3680C
:107E700012D0E168009130460D4927F018FE3046D7
:107E80000C4927F014FE0C494FF47A72304627F063
:107E90000EFECEE7094B0A4A0A49EBE7074BFBE720
:107EA000000000000000F0BF498605008F86050035
:107EB000A2860500CF860500048705002E860500F2
:107EC0003B860500178605002DE9F04F2DED028B4E
:107ED000AFB09FED311B02909FED310B04A800F075
:107EE0007BF92DF03DFC2CA7D7E900672CA5D5E93F
:107EF00000459FED2D8B0FF2C009D9E90089039051
:107F00008B464FF47A7AB0EE480AF0EE680A04A87D
:107F100000F096F942464B4620462946FFF7F6F810
:107F2000424604460D464B4630463946FFF7EEF8CA
:107F300006460F4647EC116B45EC104B04A800F0C9
:107F4000BBFABAF1010ADED12DF00AFC039B184AF4
:107F5000C01A61EB0B03A0FB020110F5804002FB8D
:107F6000031141F10001C40B4FF0FA72002344EAFF
:107F70004144CD0BFFF7A8FD2246CDE900012B4679
:107F800002980C4927F093FD50462FB0BDEC028BB0
:107F9000BDE8F08FAFF30080917EFB3A7020634024
:107FA0008FC2F5285C7F3BC0000000000000E03F6E
:107FB00040420F00718B0500F168E388B5F8E43E9C
:107FC0002DE9F04706462DED028B002800F0B38026
:107FD0000378002B00F0AF804FF0FF304FF0FF31FF
:107FE00005F0FCFE2DF0BCFB4FF47A73A0FB0307F9
:107FF000C50B304603FB017705F0B8FE45EA47455F
:108000000446FF0B002848D0D0E9148948223146A5
:1080100008302DF006FD4E4A5368B5EB080003F119
:108020000103536067EB0901C4E91457FFF7F6F940
:10803000484B0022FFF74AFB02460B4643EC182B45
:1080400000220023FFF794FC08B19FED3D8BB0EEBA
:10805000480AF0EE680A04F15805284600F0F0F8E6
:10806000284696ED041B96ED020B00F025FA00253C
:10807000D4F8F830022B54D99FED330B04F14802A9
:1080800004F1400104F1580026F017F894F8293063
:1080900043F0080384F8293043E02F4B1A4613F8C5
:1080A00001ABBAF1000F33D1DFF8B48001231355CF
:1080B0004FEA042908EB04244FF48072514620460D
:1080C0002DF0D7FC4822314604F108002DF0A9FC20
:1080D000C4E9145709F15805454496ED041B96ED83
:1080E000020B284600F078F896ED041B96ED020B83
:1080F000284600F0E1F9194B48F809A05A68BAB9C6
:10810000C3E90044124A1368013313600125AFE745
:108110000134202CC3D10E4AD3680133D3606FF0F1
:108120000B0505F063FEBDEC028B2846BDE8F08729
:1081300014605C60E6E76FF01505F4E7AFF30080CC
:10814000FCA9F1D24D62503F0000000000004E40FB
:10815000AC65002000408F40F28D0020BC650020FF
:10816000A0110020000000002DE9F04F85B00F465F
:10817000039204460026039B002503EBC60A04F184
:10818000200914E0FBE80823F8E80201FFF774F97E
:1081900002460B46DDE90001FEF7B8FFC145CDE917
:1081A0000001EFD10135042DEAE8020107D09FED6F
:1081B000087B07EBC50B8DED007BA046E2E704369C
:1081C000102E01D04C46D6E705B0BDE8F08F00BFB9
:1081D000000000000000000010B5982204462DEDBC
:1081E000048BB0EE409AF0EE609AB0EE418AF0EE69
:1081F000618A002110302DF03CFC0DA3D3E900234F
:10820000C4E90823C4E912230BA3D3E9002384EDB6
:10821000009BC4E91C23C4E9262384ED028B0123BF
:1082200084F8A430BDEC048B10BD00BFAFF3008018
:10823000FE8CFD9AC83BAB3EFE8CFD9AC83B8B3E44
:108240002DE9F04F90F8A430ADF5317D8DED000BA8
:108250000546002B00F0188100260027924B0022D3
:10826000CDE912678DED140BCDE91667CDE91867DE
:10827000CDE91C678DED1E0BCDE92067CDE92267A6
:10828000CDE92667CDE92867CDE92A67CDE92C67D6
:1082900010ACCDE91023CDE91A23CDE92423CDE993
:1082A0002E2300F120030DF1200B0294A0464FF085
:1082B000000A0793CDE90467A9464446F9E802237A
:1082C000F4E80201FFF7D8F80B460246DDE90401A5
:1082D000FEF71CFF079B9945CDE90401EED10AF199
:1082E000040ABAF1100FEBE8020108F12008E1D10D
:1082F00008AE2A4610AF334603CBBB421060516034
:108300001E4602F10802F6D105F12001384630AAD6
:10831000FFF72AFF50AB00201946029E1F4600229D
:10832000F6E802890132042AE7E80889F8D1029ABE
:10833000013020320428029203F10803EDD170AA23
:1083400030A8FFF711FF594BD3E9006750A3D3E9D9
:10835000002330463946FFF78FF82C468046894681
:108360004DA3D3E90023F4E80801FFF785F841ECB9
:10837000100B03F051F84AA3D3E9002351EC100B82
:10838000FFF77AF802460B4600204749FFF79EF9AF
:1083900032463B46FFF770F8424606460F464B46CC
:1083A00040464946FFF768F8324682468B463B46D0
:1083B00030463946FFF760F8DDE90023CDE90201D8
:1083C00010461946FFF758F80B4680468946024684
:1083D000DDE90001FFF750F87022CDE9040100212A
:1083E00092A82DF046FBDDE90423DDE90001FFF74B
:1083F00043F82F4B0022FFF73FF852465B460646F4
:108400000F46FFF739F8DDE90223CDE99001304648
:108410003946FFF731F8274BCDE99A010022DDE913
:108420000401FFF729F852465B4606460F46FFF760
:1084300023F8DDE90223CDE9A001CDE9940130461E
:108440003946FFF719F84246CDE9AA01CDE99E0168
:108450004B4650465946FFF70FF84246CDE9A40176
:108460004B46DDE90201FFF707F8CDE9AE0170AE3A
:1084700090AFA035F7E80223F6E80201FEF746FECA
:10848000E4E80201A542F5D10DF5317DBDE8F08F9C
:108490009DE61FC5ACE4E23E399D52A246DF913F06
:1084A000000000008019FB400000F03F08000020A1
:1084B0000000D03F0000E03F2DE9F04F90F8A430DD
:1084C000E5B08DED0E0B8DED101B0446002B00F07A
:1084D0006081BB4BD3E90067B1A3D3E900233046E9
:1084E0003946FEF7C9FF94ED007BAFA3D3E9002323
:1084F0008046894651EC170B8DED027BFEF7BCFFE1
:1085000041EC100B02F088FFA9A3D3E9002351EC42
:10851000100BFEF7B1FF02460B460020A949FFF7FA
:10852000D5F832463B46FEF7A7FF424606460F46C1
:108530004B4640464946FEF79FFFD4E90823FEF725
:10854000E5FD94ED0A7BCDE9040132463B46304619
:1085500039468DED007BFEF78FFFD4E91223FEF73D
:10856000D5FD02460B46CDE90601DDE90401FEF723
:1085700083FFD4E910AB06460F4652465B46DDE961
:108580000001FEF779FF02460B4630463946FEF7FA
:10859000BBFD0022002306460F46FFF7D5F9002851
:1085A00040F0F78027F00049874B4FF0FF3230460C
:1085B0004946FFF7FBF9002840F0EB80824B4FF073
:1085C000FF3230464946FFF7E7F9002840F0E180E6
:1085D00094ED027B32463B467A4900208DED087BC4
:1085E000FFF774F806460F4602460B46DDE9060122
:1085F000FEF742FFCDE90601DDE90003324603F153
:1086000000413B46FEF738FF3246CDE90A013B46C2
:1086100050460BF10041FEF72FFF3246CDE90C0129
:108620003B46DDE90401FEF727FFCDE9040114AD67
:10863000274604F1800BAA462646D6E9088996ED1E
:108640000A7B42464B46DDE906018DED007BFEF7D5
:1086500013FFDDE90023CDE91201DDE90C01FEF78E
:108660000BFF02460B46DDE91201FEF74FFD4246C5
:10867000CAE900014B46DDE90A01FEF7FDFEDDE92E
:10868000002380468946DDE90401FEF7F5FE024637
:108690000B4640464946FEF739FD20365E45CAE99D
:1086A00002010AF1100AC8D1DDE90223DDE90E0159
:1086B000FEF72AFDDDE90823CDE90201DDE910011D
:1086C000FEF722FDCDE9040104F1200A2E4697EDC4
:1086D000007BD6E90023DDE902018DED007BFEF78A
:1086E000CBFED6E9022380468946DDE90401FEF788
:1086F000C3FE02460B4640464946FEF707FDDDE94C
:108700000023FEF703FDE7E80201BA4506F1100673
:10871000DDD19FED297B24AE2C4F32460023B0469D
:108720004FF0000A4FF0000B07FB03F1B1F1333FAC
:1087300032D851EC170B0133102BE2E80201F3D1D0
:108740000027D5E90023D6E90001FEF7DDFCD5E9D5
:108750000223C6E90001D6E90201FEF7D5FC013784
:10876000042FC6E9020105F1100506F12006E8D143
:1087700004F1200544AA29464046FFF7F5FC802273
:1087800044A928462DF04DF9D4F8A0300133C4F89F
:10879000A03065B0BDE8F08F50465946CBE700BF2A
:1087A0009DE61FC5ACE4E23E399D52A246DF913FF3
:1087B000000000008019FB40000000000000F03FB6
:1087C000000000200000F03FFFFFEF7FCDCCCCCCBD
:1087D00008B551EC100B0DA3D3E90023FEF74CFEB6
:1087E00041EC100B02F018FE0AA3D3E9002351EC70
:1087F000100BFEF741FE02460B4600200249FEF731
:1088000065FF41EC100B08BD0000F03F399D52A2FE
:1088100046DF913F000000008019FB40000000008F
:108820002DE9F84F4FF0420904460D464A46002113
:1088300006302DF01EF92C4B2C4F18689B88A38016
:1088400021A3D3E900230FF2880BDBE900ABC4E9D5
:108850000423274B2060002240F203680026C4E96D
:108860000C23C4E902ABC4E90A67A4F8208025F010
:108870004DFCFEF7D3FD1F4B0022FEF727FF4A46B3
:10888000C4E906010021A81D2DF0F3F81A4BA5F844
:10889000208018689B88AB800FA3D3E90023C5E92B
:1088A00004230FA3D3E90023C5E902ABC5E90A6796
:1088B000C5E90C232860D4E90623C5E90623BDE8F1
:1088C000F88F00BFAFF30080D7A3703D0A1F63404D
:1088D000CDCCCCCCCC8C3BC0295C8FC2F520634086
:1088E0000000000000E070406597050000406F4008
:1088F0000080564000408F406C970500000000004B
:108900002DE9F84F2DED028B4F4B1E681F2E0446AC
:1089100000F38B80721C1A60302373434B4D8068C8
:10892000E8505F19A289A37BBB71BA80D4E9042304
:10893000C7E90223D4E90623C7E9042394F82930C0
:1089400003F00603062B47D139A3D3E90023D4E96A
:108950000C01FEF791FD38A3D3E900238046894638
:10896000D4E90E01FEF788FD41EC180BB0EE480A81
:10897000F0EE680A02F050FD404653EC102B4946D9
:10898000FEF77AFDB0EE480AF0EE680AC7E9060184
:1089900002F092FF404653EC102B4946FEF76CFD67
:1089A0004FF00108302707FB0653C3E9080183F89D
:1089B0002C8094F8293007FB065513F0010318BFEB
:1089C000E36AAB6214BF01221A4685F82D2001200C
:1089D000BDEC028BBDE8F88F94F8FC80B8F1000F75
:1089E00019D0D4F8F830012B15D915A3D3E90023F9
:1089F000D4E91A01FEF76AFEC7E9060194ED040BFB
:108A0000FFF7E6FED4E91CAB53EC102B5046594659
:108A1000FEF75CFEC6E7302303FB0653002000216F
:108A2000C3E906014FF00008BCE70020D0E700BF13
:108A300017F373435376E03F399D52A246DF913FCF
:108A40009DE61FC5ACE4E23EF0650020903B0020AF
:108A50002DE9F8432DED028B414B1B7800AFE3B9B4
:108A60004048026802F00702022A11D96C4688B019
:108A70006A463D4951613D4991614FF400719183CE
:108A80003B4942F8101F4FF4E65107F0EDFBA546B5
:108A9000BD46BDEC028BBDE8F88325F037FBDFF85F
:108AA000F4800646D8E90003301A894661EB0301D9
:108AB000FEF7B4FC2F4B0022FEF708FE0022002335
:108AC00004460D46FEF74AFF30B92B4B00222046E4
:108AD0002946FEF761FF08B1284D0024284BC8E95C
:108AE0000069D3E90023274E20462946FEF7C4FC3F
:108AF00019A3D3E90023FEF7BFFCD6E90023FEF754
:108B000005FB214BC6E90001D3E9002341EC180B1A
:108B100020462946FEF7B0FCB0EE480AF0EE680A9F
:108B200004460D46FFF754FE204653EC102B294611
:108B3000FEF7A2FC154E02460B46D6E90001FEF7F1
:108B4000E5FAC6E9000105F005FC4FF4C032002348
:108B50000F4822F09FF99BE79DE61FC5ACE4E23E7B
:108B6000128E002064090020BD9705007397050050
:108B70000300000100408F4000003E40000008401C
:108B8000E83A0020F83A0020E03A0020F03A0020CD
:108B9000003B0020D03A00202DE9F04FD1B0EFF398
:108BA0001181202585F31288BFF36F8F2D4A13683A
:108BB0000133136081F31188BFF36F8F00242A4BB8
:108BC0002A481C60214605F043FA2A46214624A87B
:108BD0002CF04FFFCDE90B44DFF8A0B001940E94C8
:108BE000214B019A1B6893422FDC214BDFF89090B8
:108BF0001C68204B013CC4EB04151D4424AF4FF00E
:108C00000008002C80F28482EFF31181202383F38B
:108C10001288BFF36F8F134B0C985A6802445A6046
:108C20000B989A6802449A600E98DA680244DA60F7
:108C300081F31188BFF36F8F0F484FF40042002378
:108C400051B0BDE8F04F22F025B9019B01330193EB
:108C50009BF82C30002B00F04182019B0D93DA46EB
:108C600036E200BFD8650020F065002001890200CF
:108C7000EC650020148E0020603B0020903B00201B
:108C80000000F07F9AF85C30002B00F01C82DAE9DB
:108C90000E67DBE902890C9B013332460C93404698
:108CA0003B464946FEF732FABF4B0022FEF7E4FB93
:108CB00041EC100BFFF78CFD55EC104BDBE9042366
:108CC000DAE91001FEF720FA22462B46FEF7FEFCF9
:108CD0004246CDE902014B4630463946FEF714FACA
:108CE000AFA3D3E90023FEF7F1FCDBE90823CDE9CC
:108CF0000401DAE91401FEF707FADBE90623CDE9FE
:108D00000601DAE91201FEF7FFF9DDE90623CDE9F4
:108D1000080110461946FEF7AFFBDDE908230446BB
:108D20000D4610461946FEF7A7FB02460B462046A5
:108D30002946FEF7EBF9DDE9022306460F46104609
:108D40001946FEF799FBDDE9042304460D4610465B
:108D50001946FEF791FB0B46024629462046FEF7D0
:108D6000D5F941EC100B24F073FE9BF82D300A93DB
:108D700059EC108B002B00F077819AF85D50002D94
:108D800000F07581DAF85820DBF828309B1A83EA66
:108D9000E372A2EBE3720F9201250022002330461A
:108DA0003946FEF7D1FD002840F06381DDE9062356
:108DB000DDE90201FEF760FBDDE90823CDE91401DE
:108DC000DDE90401FEF758FB02460B46DDE914011C
:108DD000FEF79CF901F100431393129032463B4693
:108DE000DDE91201FEF772FC0022002306460F4661
:108DF000FEF7BEFD0446002840F03F81DDE9060194
:108E000032463B46FEF738FBDDE90223FEF77EF9EA
:108E10003246CDE902013B46DDE90801FEF72CFBB5
:108E2000DDE90423FEF772F9DDE902238046894675
:108E300010461946FEF720FB4246CDE902014B469B
:108E400040464946FEF718FB02460B46DDE90201A3
:108E5000FEF75CF941EC100B24F0FAFD59EC108B95
:108E60000F9B8DF88040CDE91C67CDE91E892193C9
:108E70008DF88850002C40F0068127F000431193B4
:108E80001096DDE91001494B4FF0FF32FEF78EFDE1
:108E9000002840F0F880DDE91001444B4FF0FF322C
:108EA000FEF77AFD002840F0EE80414B002240465C
:108EB0004946FEF753FD40B13E4B0022304639464D
:108EC000FEF74CFD002840F0DC803B4B0022404682
:108ED0004946FEF743FD0446C0B1384B00223046F8
:108EE0003946FEF73BFD044680B101240A9B6BB175
:108EF0009AF85D3053B1DBF82830DAF85820991A27
:108F000048BFD11AB1F57A7FC8BF00240AF13006F4
:108F100031465846FEF7F2FD294BDFF8A8901F684E
:108F20000028D6BF35465D465E464FF00008B8457E
:108F3000C0F2AB804FF0FF38002C00F0C480022C50
:108F400040F0B7800E9BB8F1FF3F03F101030E9391
:108F500040F0C7801F2F3DDC194B7A1C1A60194B5B
:108F6000C7EB071808EB03090722314648462CF0E7
:108F7000BBFD144B08F107000722294618442CF0CA
:108F8000B3FD07F5A0730DEB0307012307F8B03C11
:108F900022461CAB2946304616E000BFAFF30080E6
:108FA0009DE61FC5ACE4E23E0000E03FFFFFEF7F1F
:108FB00000407F4000003E4000408F4000004E4097
:108FC000EC650020148E002089F80E4005F04AFA66
:108FD000022C78D104F0AAFC002874D02CA93046C9
:108FE00025F04BF818B99DF8D030022B04D0284654
:108FF0003EA925F042F835460F2200210DF161000F
:109000002CF037FD0024022318AE8DF860308DF867
:109010005E40374605F1010815F814308DF85C30D4
:10902000102218F814308DF85D30002117A823F0B5
:1090300013FB0134032C07F8010FEDD101238DF848
:109040006C3025F063F800238DF86E001A4616F890
:10905000011B01320F2A83EA0103F8D118A88DF809
:109060006F3004F017FD2EE00A9D0F9595E60F95E1
:1090700093E6334F00260024F2E600260027012461
:10908000EEE6022432E7002440E707223146484654
:109090002CF018FD40B90722294609EB02002CF0FC
:1090A00011FD00283FF448AF08F1010809F10F094C
:1090B0003DE70B9BB8F1FF3F03F101030B9310D188
:1090C0001F2F7FF749AF0D9B01330D930AF1300A33
:1090D0001C4B0D9A1B6893423FF7D4AD0BF1300B3C
:1090E0007EE508F5A0736B44012203F8B02C164B03
:1090F000C8EB0818434422469F7B9C7329461CAB4F
:10910000304605F0AFF9022CDDD1022FDBD061E74C
:10911000E65D96B91822314640A82CF0AAFC01233E
:109120008DF8083128463EAB3246E91DCDE93E892F
:1091300005F098F9204605F0F1F8013C0F3D60E597
:109140000000F07FF0650020148E00200000000079
:109150002DE9F04F2DED028BB14DB24E9FB02B7823
:1091600000AF87ED060B87ED081B0446FBB907F13E
:1091700030034822002118462CF07BFC0023B86203
:1091800007F12801A84887F82C3004F061FF97F810
:109190002C30002B39D1336813F0060F04D0A34ACA
:1091A000A048022126F0F3F96FF0010011E13368C5
:1091B00003F00703022B04D99D4A0321304626F011
:1091C000E6F99C48DFF894822CF042F900232B70DA
:1091D000994B9A4A1B685D1EC3EB031303EB020A0B
:1091E000002DC4DBAAF10F0941464846FEF786FC74
:1091F00028B14146AAF10800FEF780FC10B92846C4
:1092000005F08CF8013DCA46EAE7D7E906010022DD
:109210000023FEF7ADFB18B19FED737B87ED067B56
:10922000D7E9080100220023FEF798FB18B19FED53
:10923000707B87ED087B002C97F8513004DAD90752
:109240004CBF7C6D41F288347D4A14605A0740F16E
:10925000C680D7E918AB7B4B7B4E0022504659465F
:10926000FDF754FF9FED641B41EC100B24F0B6FC9E
:1092700063A3D3E9002386ED000B51EC100BFEF73E
:10928000FBF841EC180BB0EE480AF0EE680A02F069
:10929000C3F85DA3D3E9002351EC100BFEF7ECF803
:1092A000B0EE480AF0EE680A684BC3E9000102F02C
:1092B00003FB55A3D3E9002351EC100BFEF7DCF8B8
:1092C000634BC3E9000152A3D3E90023D7E90601A8
:1092D000FEF7D2F84AA3D3E90023C7E904015046B8
:1092E0005946FEF7C9F841EC180BB0EE480AF0EE0B
:1092F000680A02F091F887ED020BB0EE480AF0EE32
:10930000680A02F0D9FA55EC104BD7E9040122465D
:109310002B46FEF7B1F8D7E9022380468946D7E904
:109320000801FEF7A9F802460B4640464946FDF7FC
:10933000EDFED7E90823C7E90001204605F1004109
:10934000FEF79AF8D7E9022304460D46D7E904014F
:10935000FEF792F897ED0E8B02460B462046294603
:10936000FDF7D4FE2CA3D3E90023FEF785F853ECD8
:10937000182BFDF7CBFEB0EE480AF0EE680ADFF8D6
:10938000E080344CC8E90001FFF722FAD7E9002356
:1093900051EC100BFEF770F8D7E91023FDF7B6FE7D
:1093A000C4E9000124F0B2FE2B4BC3E9000104F034
:1093B000D1FF1B4B1F4801221A7000234FF4C0320B
:1093C00021F068FD174B1B6803F00703022B49D8F7
:1093D00000207C37BD46BDEC028BBDE8F08F4FF01E
:1093E000000A4FF0000B36E7000000000000374095
:1093F0000000000000000000000000000080764037
:10940000399D52A246DF913F643BDF4F8D13604090
:10941000643BDF4F8D1370409DE61FC5ACE4E23E18
:10942000128E00206409002029E10400F79905004C
:10943000BE990500003B0020EC650020148E002042
:10944000D465002000806640D83A0020E83A002029
:10945000E03A0020F03A0020D03A0020739705004F
:10946000F83A002097F851301D4ADB0794ED006B65
:109470006C469CB098ED007B116848BF7B6DD6E9C7
:10948000008958BF4FF0FF336A4682ED0C7B97EDA1
:10949000067B82ED147B97ED087B936282ED167B51
:1094A000104BD36297ED047B0F48104B50619366CD
:1094B00007F130000E4B9061C2E908AB82ED0E6BF4
:1094C000C2E9108982ED187B916442F8103F094887
:1094D00000234BF6C00106F0C7FEA54678E700BFA3
:1094E000D465002073970500229A05000002030747
:1094F00016000002640900202DE9F047064688B0F6
:109500000F4690462CF02CF94FF47A73A0FB0345DC
:1095100003FB0155E40B012F44EA45444FEAD535DE
:1095200007D1294922462B46304626F0C0FA0020B2
:1095300012E0D8F8047025483946FEF7DFFA70B11A
:1095400023483946FEF7DAFA48B1304621493A460F
:1095500026F0C9FA6FF0040008B0BDE8F087204695
:10956000294617A3D3E90023FEF75EFA05460C4609
:1095700010461946184A0023FEF756FA80460F4651
:10958000104619464EF660220023FEF74DFA824639
:109590008946104619464FF47A720023FEF744FAC2
:1095A000CDE902A9CDE90623CDE90401CDE9008783
:1095B0000A492A462346304626F079FAB7E700BF23
:1095C000005C260500000000169D0500279D050093
:1095D0002A9D0500339D050080EE36004B9D050059
:1095E0009FED0D7B124B134A1348144910B483EDC1
:1095F000007B9FED0B7B82ED007B9FED0B7B104B87
:109600004FF0FF34002281ED007B04601A605DF8AA
:10961000044B14F04BBE00BFFFFFFFFFFF1F000015
:1096200000000000000000001F000000000000001B
:1096300000030020D05D0020907A0020F802002076
:10964000887A00200000000038B51B4C9DF810E01F
:1096500094F84CC01CF0010524D163F3420C400186
:1096600094F83830A4F840104FEACE0E0EF0180EE1
:1096700000F0200040EA0E0023F0380303430F48B7
:1096800084F838309121A2FB000384F84CC001FB20
:10969000023107A3D3E90023FEF716FA6064A06441
:1096A000284638BD0C25284638BD00BFAFF30080E2
:1096B0008D49FD1A07000000D85D0020002AE784CC
:1096C00010B504469DF8080022864FEA411CC000F0
:1096D00094F8281000F018000CF0200C4CEA000C54
:1096E0000B4821F038014CEA010CA3FB0002912148
:1096F00084F828C001FB032103A3D3E90023FEF76C
:10970000E3F9606310BD00BF8D49FD1A070000003A
:10971000002AE784000000002DE9F043044600F130
:109720003A0190F84C0094F838304D4DC0F34000A9
:1097300060F386138DB084F8383013F0C1FC94F8D0
:109740003820B4F840304748246102F079020027FD
:1097500084F838209121A3FB0002C4E90277277026
:1097600001FB03213CA3D3E90023FEF7ADF9A26C72
:109770003D4B651BA3FB053502F1090398428EBFE3
:1097800019463A46014662646160064613F04AFC97
:109790006369C5F3871500F10907002B41D00DF16E
:1097A0002C08CDF820800694B4F840302D484FF0B6
:1097B0000009A3FB0002CDF80C90912101FB0321CD
:1097C00063680493294B0793294B059302230B935A
:1097D00021A3D3E90023FEF777F9104619464FF489
:1097E0007A720023FEF770F90235EDB2CDE901601F
:1097F00003213B462A46CDF80090484613F0C0FAB4
:10980000414614F021F940B994F84C3043F001037B
:1098100084F84C300DB0BDE8F0830C200DB0BDE8ED
:10982000F0830DF12C08CDE90A33616843460AAA9A
:10983000032000F05DFD0028B3D10B990D4806A36D
:10984000D3E90023A1FB0001FEF73EF90A9B20F0BB
:109850007F471F44A5E700BF8D49FD1A07000000A0
:10986000D85D0020002AE784CDCCCCCC29D10300E0
:1098700021F6030000CA9A3B2DE9F0418468A28CCE
:109880004FF6FF739A428AB000F0CE80054620461C
:1098900018F0AAFAAB7C012B00F01D81022B00F01E
:1098A0000F81002B00F0EF8094F83C81B8F1000F9D
:1098B00040F00A81A68DEB89E78D0136B6B2002B08
:1098C00040F0B5802B7C03F00303012B00F0D68021
:1098D000B4F86831002B00F0B180B34240F230811F
:1098E0009B1BA4F86831B4F86C31002B00F0C980E0
:1098F000B34240F223819B1B9BB2062BA4F86C3130
:109900004FF000028CBF00230123E285984694F8B3
:109910003A2063F3820284F83A2031460DF127029F
:10992000204618F00FF8743000F00281B4F8663168
:109930002BB1B34240F2E8809B1BA4F86631B4F827
:1099400062312BB1B34240F2D8809B1BA4F8623144
:1099500094F8B530E58D03F00101B8F1000F0AD19C
:10996000AF4200F0C6800135ADB241B9002D5BD0E9
:109970004146404642E00135ADB200293DD094F861
:10998000B53094F937206FF30003002A84F8B5301E
:10999000C0F2A78094F85A00C0F3C00100F007009D
:1099A0001BF058FA94F85A2094F85B1002F0030365
:1099B0000933C2F34002DB00D34001F00302093255
:1099C000C1F34001D200CA40E18B01F23F110B44C8
:1099D000134403446A4A6B480721E3FB0021104605
:1099E00065A3D3E90023FEF76FF8616820F07F409C
:1099F000814280F09880411A60600020A28C246926
:109A000003950023604DCDF810800332CDE901109D
:109A100006940093D2B201211846059513F0CCF9B3
:109A200010F0FD0F40F08E800AB0BDE8F081A4F880
:109A300068812B7C03F00303012B1FD0B4F86C3139
:109A4000002B7FF455AFE28C052A97BF013240F21C
:109A5000E2434FF4FA7392B203FB02F2B4F86A31B4
:109A600042F2107101FB0323013BB3FBF2F39BB203
:109A7000A4F86C31002B7FF43BAF02E00023A4F884
:109A80006C31002343E794F8723003F01803182B6D
:109A90007FF40AAF218DB4F864218B1D9A42C4BFB4
:109AA000931F5B1AB4F86011CCBF9BB21346994266
:109AB00053D0A4F86031A4F86231A4F86621F3E62B
:109AC0004FF03D0884F83C81414620460AB0BDE88D
:109AD000F04116F0D7BA0023A4F86631A4F8623139
:109AE000E2E694F85B00012100F007001BF0B4F9F6
:109AF00058E7002998D0454641E70023A4F8623191
:109B0000204617F093FF23E713F06EFF014600B3E2
:109B10000023A4F86631A38CC3801B230371006863
:109B200013F034FF0BE76060081A1CD0002165E7D2
:109B30009DF82710204616F0A5FA75E70821C4E71E
:109B40003E21C2E713F092FF84423FF46DAF00DE86
:109B50006AE70123A4F86631F1E6B4F8661100293A
:109B60007FF4A2AEA7E7002DE0D1B8F1000FDDD160
:109B70005AE700BFAFF300808D49FD1A07000000CF
:109B80008C49FD1A00CA9A3B25F903000000000029
:109B90002DE9F04F8FB0B0F838610D930446B0F85E
:109BA000FC3090F85A000B911E44C0F3C001BDF880
:109BB0006830BDF86C70BDF86080BDF86490D4F872
:109BC000F4A00C9300F007001BF044F9E58CB6B24A
:109BD000A6EB070B052D1FFA8BFB40F2D38015FB7C
:109BE0000BF5B8F1050FADB240F2E24B40F2D48074
:109BF000B4F85220B4F85030134403F2D5130344A0
:109C00007B4A7C480721E3FB00214FF09613E36178
:109C100096231046238474A3D3E90023FDF754FF51
:109C2000434620F07F4040F2E2420BFB05F102FB8D
:109C300003FB4A1E5A44B2FBFBF293B20BFB03F345
:109C40009942606095B280F0B3806A48591AA1FBCE
:109C5000000165A3D3E90023FDF736FF20F07F4024
:109C60008244B4F8FC20B4F83831BF1B3D44ADB297
:109C700013442B44A4F83831638D1A4494F83730D8
:109C80001544DB09658540F0A1800D9B5948A3FB75
:109C9000000155A3D3E90023FDF716FF20F07F450F
:109CA00001350C9BA4F86A3159462046A4F8268059
:109CB000A4F8289017F072FE4F4B218D5B44881D4D
:109CC000B3FBFBF39AB29042A4F8642104D2C1F52D
:109CD0007F41FA310A4492B20B9BA4F8602113B180
:109CE0000023A4F86C31022101201CF03DFD00226C
:109CF00002210646012011F0CFFE40494FF4C07208
:109D0000204611F059FEC21C3D4B0093D7B201947E
:109D100053463A460121002013F0E2F810F0FD0FFF
:109D20005FD1344830A3D3E900238BFB0001FDF75A
:109D3000CBFE08940694194663680493314B07934D
:109D4000314B05934FF6FE73804603931046002374
:109D50004FF47A72FDF7B8FE0095CDE901805346C5
:109D60003A460121002013F00BF810F0FD0F36D118
:109D70007EBB94F83A3143F0010384F83A310FB0D6
:109D8000BDE8F08F013515FB0BF5B8F1050FADB24D
:109D90004FF4FA7B3FF62CAF4FF0961208F1010317
:109DA000E261962222849BB20A204FF4FA723CE7C9
:109DB0001048C91AA1FB00010BA3D3E90023FDF74A
:109DC00083FE20F07F40AAEB000A4AE700DE002570
:109DD00067E701220221104611F05EFEC9E700DEAE
:109DE000C6E700DE9DE700BF8D49FD1A07000000B1
:109DF0008C49FD1A00CA9A3B7FC3C901285E002026
:109E0000E5F80300CDF8030025440400000000003D
:109E10002DE9F04F8BB0CDE9030100209DF854806F
:109E2000BDF858A0BDF85CB0BDF8609005921F4623
:109E300015F0BCFC002800F0288108F0010504465C
:109E4000284613F02DF9002D4FD1636904F110025B
:109E50000692002B50D06669356896F84A00C0F328
:109E6000C00100F007001AF0F5FFB6F84210B6F88E
:109E70004020F38900F23F100A44034413449C48F5
:109E80009C4A0721E3FB0021104697A3D3E9002356
:109E9000FDF71AFE20F07F40686094F84C10069899
:109EA00068F3420184F84C1094F8391067F300010C
:109EB000DDE9032384F8391014990968A161149924
:109EC0008988A1830599A4F8249000910021FFF7C7
:109ED000F7FBA0641BF03AF9002840F0DA80204636
:109EE000FFF71AFC0BB0BDE8F08F062111F078FDEA
:109EF0000028AAD11220F5E713F030FD07900028C2
:109F000000F0E48015F08EFD0546002800F0DB80AF
:109F1000143011F023FF05F11006002840F0DC801A
:109F2000032105F118001AF0BBFEE86EA5F828B071
:109F30004FF6FF72A5F826A0AA84002800F0C8807A
:109F400005F1600205F15C0111F056FDB5F85A20EB
:109F500022F4EF6222F0070242F48C7242F0010216
:109F6000A5F85A2095F872204FF0000B22F0070256
:109F700085F8722001212846C5F86CB0A5F870B0AC
:109F800016F074FBA5F82AB0C5F82EB005F1320022
:109F90001AF074FB95F8372060F3050285F8372036
:109FA00001210DF127001AF07BFE9DF82710524A7F
:109FB00085F839B0A2FB0102D20802EB4202A1EB04
:109FC000820195F83720A5F838B102F03F0285F8F4
:109FD000372095F83A20A5F86CB1053122F0070238
:109FE00040F2E24085F8381085F83A20298D434A3E
:109FF000A5F86A9100FB0AFA06205244A5F8680108
:10A0000001F1060CB2FBFAF290B26045A5F866B118
:10A01000A5F862B1A5F8640102DD0638401A80B2E5
:10A02000A5F86001284617F051FC5146284617F064
:10A03000B5FC4FF0000A079BC5F8403185F83CA1FC
:10A0400015F060FF95F8742160F3020285F8742121
:10A0500015F05EFF95F8742160F3C50285F8742150
:10A0600095F83A216AF3410285F83A2105F1B800E2
:10A0700017F04CFA4FF09612C5E907226661C5E960
:10A0800002AA85F800A02D61E7E60C200BB0BDE820
:10A09000F08F6569EB6D2BBB05F1500105F14C00AC
:10A0A00011F0AEFCE0B12E68E865D6F84001A8B129
:10A0B00013F05AFC304615F0BBFC0023032063610B
:10A0C0000BB0BDE8F08F079813F04EFC072009E7AE
:10A0D00005F16400E86633E700DE21E700DEE7E72C
:10A0E00000DEE0E700DED7E78D49FD1A070000003B
:10A0F00000CA9A3B8C49FD1AABAAAAAA7FC3C90120
:10A100002DE9F04F0446037F406A8DB01546C3F336
:10A11000401AC3F3C012238DADF82C30E3070F466D
:10A120000A9000F1CE80BDF82C300A98A2774FF04B
:10A130000008A4F81C80A4F82330C4F81F003B6872
:10A140001E68EB8AE3842B8B2385B38C63851BF01D
:10A1500051F884F82C00D5F80090484615F06EFCB4
:10A160004146A882E080484617F02CFCD7F80480CE
:10A170002068214613F0FEFBAB8AA8F806301C23AA
:10A18000D8F8004088F80430BAF1000F40F08D8014
:10A19000534688F81C304146204613F0F7FB95F8EB
:10A1A0004A00B5F81680FC6840F2E243C0F3C001F3
:10A1B00000F0070003FB08F81AF04CFE0022022111
:10A1C000241A012011F068FC304615F0C7FA424B02
:10A1D000A4FB034B05463EA3D3E900232046594682
:10A1E000FDF772FC0196BB683C49009120F07F4668
:10A1F000AA1C363BD2B233440121002012F070FE7B
:10A2000010F0FD0F5FD14FF0000A012211465346B6
:10A21000CDF800A0504612F021FE484615F00EFC85
:10A2200005462D482AA3D3E90023A8FB0001FDF72A
:10A230004BFC19462A4BBF6808932A4B069340F201
:10A240007233CDF81C900993D9F804308046CDE9DB
:10A2500004A3104600234FF47A72FDF735FC224B1D
:10A260000722A6FB0331CDE9028002FB0611E01AAA
:10A270006BEB01014FF47A720023FDF725FC0335E7
:10A28000363FEDB2CDE900603B462A4601215046FB
:10A2900012F022FD10F0FD0F17D10122022110460D
:10A2A0000DB0BDE8F04F11F0F7BB95F8273043F043
:10A2B000400385F82730281D1AF036FA0123288537
:10A2C00067E700DE2FE700DE9DE700DEE5E700BF81
:10A2D0008D49FD1A0700000000CA9A3B194404008A
:10A2E0001D440400254404008D49FD1A00000000AF
:10A2F0002DE9F04F8FB0FF2709930B1D0893002322
:10A30000CDE90533DFF884A18DF82F700546164698
:10A310000C9398463C460DF134090DF1300B0223A5
:10A320000D93CDE901A9CDF800B033460DF12F0210
:10A330002946002012F018FE022813D00D9BBBB94D
:10A34000FF2C18D03368434515D0002F00F08780CC
:10A35000013FFF24FFB28DF82F40E0E7294600209F
:10A3600012F048FE0D9B022BF8D00D9B002BE7D07E
:10A3700000DEFF2CE6D19DF82F30FF2B49D0032BB8
:10A38000CDD1002015F062FB0028C8D090F93730FD
:10A39000002B24DA436807939DF82F30032B14D049
:10A3A000FF2CDDF8308008D00599404612F03CFEC5
:10A3B000089B069A134498422DD8079B9DF82F407E
:10A3C000CDE90583D6F80080A9E7002015F03EFB13
:10A3D0000028E5D090F93730002BE1DA9FE790F8BC
:10A3E0005A00C0F3C00100F007001AF033FD244A00
:10A3F000244B00F5935005300721E0FB023118464D
:10A400001BA3D3E90023FDF75FFB20F07F430793F5
:10A41000C2E7FF2C27D0069A1B480721A2FB0003A6
:10A4200001FB023114A3D3E90023FDF74DFB0446E1
:10A43000B8B9059B1448013BA3FB0002072101FBAF
:10A4400003210DA3D3E90023FDF73EFB099A00F198
:10A450001E032344002013600FB0BDE8F08F00DE20
:10A4600076E73E34E5E76FF009000FB0BDE8F08F06
:10A470008D49FD1A0700000000CA9A3B0000000049
:10A4800000CA9A3B8C49FD1A8D49FD1A29460400E1
:10A490002DE9F043C668476873683D491A68D0F8EB
:10A4A0000090A7F57423A3F510738B4283B0804608
:10A4B00007D907F1E87707F5D43709F1FF3907F530
:10A4C000A57773685168DD8ACDF8049006F1100312
:10A4D00001AA0220FFF70CFF00284ED10199A1EB41
:10A4E00009031B0237D40846494612F09DFD034676
:10A4F00028480721A3FB000201FB032122A3D3E983
:10A500000023FDF7E1FA34690444002C346109DBCF
:10A5100040F2E24305FB03F3A3422FD2E41AA34225
:10A52000FCD33461D8F800301A48A3EB0903A3FB2D
:10A530000002072101FB032113A3D3E90023FDF748
:10A54000C3FA154BA3FB0737A0EB974020443061BB
:10A5500003B0BDE8F083484612F066FD03460D489F
:10A560000721A3FB000201FB032107A3D3E900237A
:10A57000FDF7AAFA3469241AC7E73469002CD1D14F
:10A5800003B0BDE8F08300BF00CA9A3B00000000A2
:10A59000BFBDF07F8D49FD1A83DE1B430000000024
:10A5A0002DE9F041C46894F92830002B8CB0C0F23A
:10A5B000A880636805460E46002B40F0978094F80B
:10A5C00028306FF3000384F828301BF0EDFC0020E6
:10A5D0001BF010FD002108461BF0FEFC08200022A5
:10A5E00025211BF03BFD012013F0E0FA002800F0CC
:10A5F0008F801C301BF05CFD5F4B0B930BA81BF096
:10A6000019FD5E4940F25B601BF0CAFD94F828001A
:10A61000C0F3410025301AF0E9FB594821461BF0F0
:10A6200097FC94F828309B0602D46368002B5AD01C
:10A6300096201BF0E3FE00231A46194618461BF02D
:10A6400015FED4F800802F6840461AF0BBFB074483
:10A650006A6807F1090100201BF0DCFE1BF0B0FF67
:10A660001BF074FE204615F085F8811CC9B24046E7
:10A670003A461AF0A9FB804600284FD10EB9636B09
:10A68000D3B963687BB12A683E4BA2616A68E26114
:10A6900004F118019960646201220221002011F086
:10A6A00031FA002838D120461AF05AFB002831D15F
:10A6B00000200CB0BDE8F081334A0792334A05927E
:10A6C00040F2F31200930892CDE90366CDE90166EA
:10A6D00006943B463146012212F052FB10F0FD0F6A
:10A6E000CFD000DECDE71BF021FEAAE7636893F828
:10A6F0002A30D90705D4636893F82A309A077FF582
:10A700005EAF234821461BF023FC1BF0F3FCCFE790
:10A7100000DE6EE700DECBE700DEC4E71D4A1E491F
:10A720001E4840F2E51323F081FF1D4B0721A8FBD3
:10A73000030301FB08310EA3D3E90023FDF7C4F99D
:10A7400018490246184823F071FF002585F3118847
:10A75000BFF36F8F0323184602DF144821461BF016
:10A76000F7FB1BF0C7FC6FF08B00A2E7AFF3008094
:10A7700000CA9A3B00000000D6BE898E5555550090
:10A7800051A802007C060020F95104000152040087
:10A79000094F0400F87C0500447D0500A87B0500F6
:10A7A0008D49FD1A747D0500487D05008D52040019
:10A7B00038B504461AF038FD94F8283094F828206B
:10A7C000C3F34103013303F00303032B08BF00234A
:10A7D00063F3420214BF03F12500252084F82820EA
:10A7E0001AF004FB63680BB123694BB912F01AFC31
:10A7F000C11C00201BF082FEBDE838401BF0E0BE0B
:10A800001BF0AAFE054612F00DFCC11C00201BF037
:10A8100075FE1BF0D5FE1BF09FFE294612F004FCCE
:10A82000094A03460721A0FB020201FB032104A3FE
:10A83000D3E90023FDF748F923691B1A236138BDCA
:10A8400000CA9A3B000000008D49FD1A000000007C
:10A850002DE9F0478AB004461BF08EFCC0B250B917
:10A860001AF00EFBB24821461BF072FB0AB0BDE89D
:10A87000F0471BF03FBC1BF09FFC05461BF09EFD04
:10A8800006461BF0A5FD1BF07BFDEDB207461BF055
:10A890005BFD1AF0F5FA002DE4D0012013F086F9E3
:10A8A0000546002800F03E8194F8288018F0080F33
:10A8B000C8F3C10AC8F3C00140F0C4802E7F6268AB
:10A8C000FFB206F00F03002A00F0C180626892F820
:10A8D0002A20920700F1BB80072BC3D0A1B994F8BE
:10A8E0002920C6F3801102F00102914240F0AF80AE
:10A8F000062205F11E0104F1080007932BF0C5F8AC
:10A90000079B002840F0A380002B40F017816B7F4D
:10A91000063B1F2BA6D8042013F048F90028A1D02D
:10A920001BF056FE636B064643B9238E40F271223C
:10A9300002FB03F3B0FBF3F203FB120622687D4B2C
:10A9400052680721A2FB030301FB023176A3D3E97E
:10A950000023FDF7B9F86FF44273C3181F3B4FF0A3
:10A96000000747F1FF32B34272F10002FFF47AAF01
:10A970001BF0DCFC94F8286063681BF02BFC05F1ED
:10A980001E03019309AB0493C6F3801604F12A0356
:10A99000029603932B7FC3F38013014606463A4683
:10A9A0000093204601231AF06FFD30461BF086FB12
:10A9B0001BF0D8FB002840F082815F4821461BF045
:10A9C000C7FA626892F82A3043F0010382F82A300D
:10A9D00094F8283043F0800384F8283013F000F90D
:10A9E000172303714FF6FF73C38095F81CE00746E9
:10A9F0003346CEF3401E00F11C0206F1200C1D6808
:10AA000058689968DE68D6601033634515605060F9
:10AA1000916002F11002F2D11B6813603B7FBC60B1
:10AA20006EF345133B771BF097FD099BC7E90403C1
:10AA300013F0D6F8F860386839460AB0BDE8F04738
:10AA400013F0F8B8F6B2002E3FF40CAF36E7002B47
:10AA500061D16A7F052A7FF605AF252A3FF602AF4E
:10AA600008F02101202940F0B1806268002A00F03E
:10AA7000B580062B3FF6F6AE4FF0450929FA03F9EB
:10AA800019F0010940F0A180012B00F08880042B0F
:10AA90007FF4E8AE6B7F063B1F2B3FF6E3AE18F06A
:10AAA000010F3FF4DFAE1BF095FB2E7F0278C6F35B
:10AAB0008013B3EBD21F7FF4D5AE0830062205F128
:10AAC0001E012AF0E2FF00287FF4CCAE6B7F002B42
:10AAD0003FF4C8AE636823B106F00F06072E7FF47B
:10AAE000C1AE032013F062F8054600283FF4BAAE69
:10AAF00013F076F84FF6FF73EB8005232B716FB9D7
:10AB00007F206B7E287669F3000328686B762946E0
:10AB100013F090F8A6E6062B9BD0AAE71BF020FCCA
:10AB2000C0B2EEE700DEBFE600CA9A3B00000000BC
:10AB3000A55204008D49FD1A9D530400012BEAD152
:10AB40006A7F0C2A7FF48EAEC8F38013B3EBD61F56
:10AB50004FEAD61900F09D80BAF1010F40F2A480AF
:10AB6000B9F1000F06D095F8293003F0C003402B4F
:10AB70003FF4D1AEC8F38018B8EBD61F4FEAD61910
:10AB800018D0B9F1000F3FF46DAE95F8293003F0FD
:10AB9000C003402B7FF466AE4FF001099AE76A7F4D
:10ABA0000C2A7FF45FAEC8F38018B8EBD61F4FEACB
:10ABB000D6190FD1062205F1240104F12A002AF04A
:10ABC00064FF38B94FF0000984E76A7F063A1F2A0C
:10ABD000F8D947E6BAF1010FD3D843E69620079299
:10ABE0001BF00CFC079A10461BF0F8FA032012F039
:10ABF000DDFF064600283FF435AE12F0F1FF4FF6B8
:10AC0000FF73F38005233371002F54D17F23727EAD
:10AC100033766FF3000272763146306813F00AF82B
:10AC20001BF0D8FA0378032262F3030303702B7F2F
:10AC30000278C3F3801363F3C7120C2302704370CE
:10AC400094F82830D2B2C3F3801363F3861203461C
:10AC500003F8022BD4F82A20C0F80220E28D9A8053
:10AC6000D5F81E3083606B8C83811BF027FA1BF0B4
:10AC700079FA30BB1BF0A4FC94F82830124843F05A
:10AC80000103214684F828300AB0BDE8F0471BF0E4
:10AC90005FB9062205F1240104F12A002AF0F5FE2D
:10ACA00000283FF438AE57E7C8F38019B9EBD61F38
:10ACB0007FF4D8AD7EE71BF053FBC3B2A7E700DEFD
:10ACC0007BE600DED6E700BFB952040000000000BA
:10ACD000F0B5C468A28A4FF6FF739A4285B000F0BF
:10ACE000AE8005461AF0ACFC2B89628B208CA383C6
:10ACF0001A4492B2104494F82730E28380B2411C87
:10AD000021845E064FF00001618304F1220167D4C3
:10AD100003F03F000B4694F82810009004F129003E
:10AD200019F0BAFC0646204603A91AF0C9FD039B98
:10AD300094F862101A7861F3C3021A70039A94F8B7
:10AD400062301178C3F3400363F3820111701BF08A
:10AD50002BF900201BF04EF9201D1BF06BF9238905
:10AD6000A17A40F25B6043EA01411BF019FA3046D8
:10AD70001AF03CF8039920461AF076FD2146364831
:10AD80001BF0E6F8E0891BF039FB94F84B0000F06B
:10AD900007001BF023FA27682E6838461AF012F8CD
:10ADA000064406F109016A6801201BF033FB1BF021
:10ADB00007FCA18A03313246C9B238461AF004F8BA
:10ADC0000646A8B1AB7A13F0020517D00025234838
:10ADD00021461BF0BDF81BF08DF9284605B0F0BDEB
:10ADE0000A4603F03F03218D19F0A2FC06469AE7BC
:10ADF000204619F0B5FF48BB0025EEE7184A19496F
:10AE000019484FF4807323F011FC18480721A6FB62
:10AE1000000301FB06310EA3D3E90023FCF754FE27
:10AE200013490246134823F001FC85F31188BFF350
:10AE30006F8F0323184602DF6FF08B05C7E70E48BC
:10AE400021461BF085F81BF055F9D5E700DED3E766
:10AE500000CA9A3B00000000C5570400E94E0400F8
:10AE6000887D0500447D0500A87B05008D49FD1AFD
:10AE7000D87D0500487D0500094F04000000000052
:10AE80002DE9F84F2DED028B81468846002219F8F6
:10AE90000230202B02F1010100F0CE81A3F1090064
:10AEA000042840F2C9812B2B0D4634D02D2B37D0EE
:10AEB0001846042440F02003692B33D06E2B6CD04D
:10AEC00000224FF00A0A964694461346114614F49F
:10AED000006677D040F02007A7F1610BBBF1050FAA
:10AEE00070D8573FFFB2574580F0058144F0800687
:10AEF000E005B6B274D5F40506F4007040F1868022
:10AF0000002F18BF4CF0010C00B9013219F80500F0
:10AF100034460135DBE7042419F80100951CC9E724
:10AF20004424F9E79FEDB68BBB4B13F8011B51B1DD
:10AF300019F8052042F020028A4205F1010030D0C4
:10AF4000B64A93423AD1B0EE480AF0EE680A2BF0C6
:10AF50002CF850B119F80530282B06D1013519F815
:10AF60000530292B05F101051DD1630607D518EE23
:10AF7000901A18EE102A01F1004343EC182BB8F197
:10AF8000000F02D04D44C8F80050B0EE480AF0EE71
:10AF9000680ABDEC028BBDE8F88F9FED9B8BA04B40
:10AFA000C3E70546C1E723F02002413A192AD6D962
:10AFB000A3F13002092AD2D95F2BD0D09FED948B18
:10AFC0000025DCE7A0F13007FFB257452ED244F050
:10AFD000800614F48070B6B28DD1BAF10A0F06D093
:10AFE000BEF10F0F87DD44F4C076B6B283E7BEF141
:10AFF000100F80DD44F4C076042FB6B27FF67BAF2D
:10B00000052F08BF07464FF0020C74E700B1013A64
:10B01000AAFB0334FB180AFB014444F1000153EA84
:10B0200001003FF473AF0EF1010E6FE7FE2F62D106
:10B03000A7055CD52006C1D5002E40F09F8053EABD
:10B04000010005F1FF3500F0F480200540F1BA80E1
:10B050003632B1F5800FC0F09A80724FB1F5000F13
:10B0600080F09980BA42C0F296804CEA030303F064
:10B070000306032E084604D003F00606062E40F011
:10B080009380043341F10000B0F5000FC0F08C80D4
:10B090000132B2F5806F80F2C98000234FF4801135
:10B0A00002F2FF3221F480111E4641EA025747ECBA
:10B0B000186BB0EE480AF0EE680A22F0C9FE0138BB
:10B0C000022804D82BF02AF8574B22221A50B0EE4F
:10B0D000480AF0EE680A22F0BBFE013802283FF66B
:10B0E00044AF2BF01BF8504B22221A503DE744F49A
:10B0F0000076B6B20AE740F02000782804F0800716
:10B1000009D147B153EA010A05D144F40066B6B249
:10B110004FF0100AFAE6002F3FF450AF86B39200CA
:10B12000702686428BD119F805002B2805F10106FF
:10B1300004D02D2826D144F48064A4B219F8060066
:10B14000A0F13006092E3FF67AAFAE1C354640F22C
:10B15000D34A00264FF00A0B5645DCBF30380BFBB4
:10B16000060619F80500A0F13007092F05F10105C1
:10B17000F2D9670548BF7642324460E72E20CEE719
:10B180006526CEE7A0F13007092FDFD957E7DB1896
:10B190004941013A5DE75E0846EAC17603F00103E2
:10B1A00033434908013259E7B2F5806F3EDA9B0814
:10B1B000B0F5800F43EA80734FEA9001BFF470AF9F
:10B1C000002271E70EEB020010F5A27F12DDB0F550
:10B1D0009B7F2BDA03F0010040EA0C00013080086D
:10B1E000181841F1000100F033F8B0EE408AF0EE9B
:10B1F000608A6CE79FED068B69E700BFAFF30080C4
:10B20000000000000000F07F000000000000F87F58
:10B2100000000000000000004ACF05004DCF0500EF
:10B2200047CF050002FCFFFF0C0000009FED048BE0
:10B230004DE79FED058B98E60A4628E6AFF30080C0
:10B24000000000000000F07F00000000000000008F
:10B250002DE9FF47804616460F46002900F0A280E0
:10B26000B1FA81F4341B002E04F10A04C0F2A2806A
:10B27000304622F0CFFA0444304622F0D1FAA4EB53
:10B28000060905466946304622F0F2FAA9EB0503A5
:10B290007D336A46404639462AF080FCA642824603
:10B2A0000D4600F38380B9F13F0F00F381804FF02A
:10B2B000FF33A9F1200003FA00F003FA09F2C9F103
:10B2C0002001024323FA01F10A4303FA09F328EAB1
:10B2D000030327EA020213430CBF01200020002DC4
:10B2E00000F08A80B5FA85F3E31A03F23E4340F298
:10B2F000FE72934200F38980002B23EAE376CCBFF1
:10B3000032460122121BA2F23341C1F1200CA2F2FB
:10B310003447A2F253442AFA01F305FA0CFC43EA3B
:10B320000C0325FA04F4C7F1200EA2F2544C234377
:10B3300005FA0EFE2AFA07F425FA0CFC44EA0E047C
:10B3400044EA0C0414F0010F25FA01F1C7F1200CB6
:10B35000A2F2544254D0A8B14FF0FF3000FA02F2EA
:10B3600000FA07F4144320FA0CF2B84014432AEA16
:10B37000000A03F0010225EA04054AEA020A5AEA31
:10B38000050A3DD0013341F10002C2F3130253EA32
:10B39000020138D0184642EA065141EC100B04B0C5
:10B3A000BDE8F087B0FA80F420345BE7012096E72F
:10B3B000002094E7C6F10009484622F031FA241A29
:10B3C000484622F02DFAA61B0546694648462E44FB
:10B3D00022F0C2FA06F17C036A46404639462AF05A
:10B3E000DDFB82460D464046394622F029FA81456A
:10B3F0008CBF0020012072E7BAFA8AF3203373E78A
:10B40000C1F31302C6E70136C4E79FED010BC6E79F
:10B41000000000000000F07F7FB58DED000B019B68
:10B42000254A23F00043934206D89FED211B07B025
:10B430005DF804EB00F0A0BA204A934204D907B0AB
:10B440005DF804EB00F08CBA02A800F039F800F0C7
:10B45000030001280BD0022819D0F8B99DED041B78
:10B460009DED020B00F088FA53EC102B0AE09DEDE5
:10B47000041B9DED020B00F09BFE51EC100B0246ED
:10B4800001F1004343EC102B07B05DF804FB9DED88
:10B49000041B9DED020B00F06FFAEEE79DED041B1F
:10B4A0009DED020B012000F083FEDDE7AFF300808D
:10B4B0000000000000000000FB21E93FFFFFEF7FDC
:10B4C0002DE9F04F5BEC10ABC54B8DB02BF0004875
:10B4D00098450446CDF810B007D80022002380ED2F
:10B4E000000BC0E90223002528E0BE4B984578D820
:10B4F000049BBD4D002B5046ABA3D3E90023594616
:10B5000038DDFBF701FEA84506460F461AD0A8A372
:10B51000D3E90023FBF7F8FD02460B468046894637
:10B5200030463946FBF7F0FDA1A3D3E90023FBF732
:10B53000EBFDC4E90089C4E90201012528460DB0EC
:10B54000BDE8F08F9CA3D3E90023FBF7DDFD9CA3AE
:10B55000D3E9002306460F46FBF7D6FD02460B460D
:10B560008046894630463946FBF7CEFD94A3D3E9A1
:10B570000023DCE7FBF7CAFDA84506460F4618D0B6
:10B580008BA3D3E90023FBF7C1FD02460B4680469F
:10B59000894630463946FBF7B7FD85A3D3E900233A
:10B5A000FBF7B4FD4FF0FF35C4E90089C4E902019F
:10B5B000C4E781A3D3E90023FBF7A8FD80A3D3E967
:10B5C000002306460F46FBF7A1FD02460B468046C8
:10B5D000894630463946FBF797FD79A3D3E9002326
:10B5E000DEE7824B984500F2CE802BF0004776A331
:10B5F000D3E9002350463946FBF73EFF7C4B00223F
:10B60000FBF784FDFCF7E8F90546FBF7CBFE0246A5
:10B610000B46CDE9022364A3D3E90023FBF72CFFFB
:10B6200002460B4650463946FBF76EFD60A3D3E950
:10B63000002382468B46DDE90201FBF71DFF02462F
:10B640000B4606460F4650465946FBF75DFD1F2D3B
:10B6500005DC684B6A1E53F82230434508D14FEA97
:10B6600028530593C1F30A53C3EB1853102B02DC84
:10B67000C4E9000139E050A3D3E90023DDE9020168
:10B68000FBF7FAFE06460F4602460B465046594661
:10B69000FBF73AFD02460B4680468946504659461E
:10B6A000FBF732FD32463B46FBF72EFD44A3D3E9C0
:10B6B000002306460F46DDE90201FBF7DDFE3246B8
:10B6C0003B46FBF721FD02460B4606460F46404629
:10B6D0004946FBF719FD059AC1F30A53D31A312BDA
:10B6E00020DCC4E90001C246CB46D4E900895046BB
:10B6F00042464B465946FBF707FD3B463246FBF7B1
:10B7000003FD049B002BC4E90201BFF617AF09F14A
:10B710000043636001F10043C4F80080A060E3606F
:10B720006D420BE72AA3D3E90023DDE90201FBF711
:10B73000A3FE06460F4602460B4640464946FBF727
:10B74000E3FC82468B4602460B4640464946FBF7E1
:10B75000DBFC32463B46FBF7D7FC1FA3D3E90023B3
:10B7600006460F46DDE90201FBF786FE32463B4600
:10B77000FBF7CAFC06460F4602460B4650465946A2
:10B78000FBF7C2FC74E71C4B984537D952465B4621
:10B7900050465946FBF7B8FCC4E90201C4E9000170
:10B7A000A1E600BFAFF3008000004054FB21F93F49
:10B7B0003163621A61B4D03D0000601A61B4D03DBB
:10B7C0007370032E8A19A33B83C8C96D305FE43FB1
:10B7D0000000002E8A19A33BC14920259A837B399A
:10B7E000FB21E93F7BD90240FB21F93FFB21394195
:10B7F0000000E03FE0800500FFFFEF7F4FEA2855A3
:10B80000A5F21645A8EB055150460F46FCF7E4F8A3
:10B81000FBF7C8FD02460B4650463946CDE90623E4
:10B82000FBF772FC224B0022FBF726FE0F46064672
:10B83000FCF7D2F8FBF7B6FD02460B463046394618
:10B84000CDE90823FBF760FC194B0022FBF714FE3F
:10B85000CDE90A010DF130094FF003080026002759
:10B8600079E9020132463B46C24608F1FF38FCF74F
:10B870006BF80028F4D10F4B0193022300932A4662
:10B880005346214606A800F037F9049B002B0546D5
:10B89000BFF654AED4E9002101F10043C4E900230E
:10B8A000D4E9022101F10043C4E9022338E700BFD3
:10B8B00000007041608105007FB58DED000B019B9C
:10B8C000254A23F00043934207D89FED211B002017
:10B8D00007B05DF804EB00F06BBC204A934204D93A
:10B8E00007B05DF804EB00F03BB802A8FFF7E8FDF5
:10B8F00000F00300012810D0022815D008BB9DEDF0
:10B90000041B9DED020B012000F052FC53EC102BA8
:10B9100043EC102B07B05DF804FB9DED041B9DED7F
:10B92000020B00F029F8F1E79DED041B9DED020BE1
:10B93000012000F03DFC51EC100B024601F10043E8
:10B94000E6E79DED041B9DED020B00F015F8F2E714
:10B950000000000000000000FB21E93FFFFFEF7F37
:10B9600008B52AF022FB9FED020B08BDAFF3008063
:10B97000000000000000F87F2DE9F74F59EC108B14
:10B9800029F00046B6F1795F8DED001BC0F088808C
:10B9900042464B4640464946FBF76EFD504B00225F
:10B9A00004460D46FBF768FD3FA3D3E9002382461A
:10B9B0008B4620462946FBF75FFD3DA3D3E90023D4
:10B9C000FBF7A4FB22462B46FBF756FD3AA3D3E92F
:10B9D0000023FBF799FB22462B46FBF74DFD38A3CE
:10B9E000D3E90023FBF792FB22462B46FBF744FDED
:10B9F00035A3D3E90023FBF787FB22462B46FBF751
:10BA00003BFD33A3D3E90023FBF780FB22462B4603
:10BA1000FBF732FD22462B46FBF72EFDDDE9002326
:10BA200004460D4640464946FBF726FD0B460246B6
:10BA300029462046FBF768FB2A4B9E4280468946F2
:10BA400010D802460B4650465946FBF75DFB0B46A5
:10BA5000254902460020FBF757FB41EC100B03B0D1
:10BA6000BDE8F08F214B20499E428CBF204DA6F5AA
:10BA70000015002422462B460020FBF745FB2246FA
:10BA800006460F462B4650465946FBF73DFB4246BD
:10BA90004B46FBF739FB02460B4630463946DAE7A0
:10BAA0009FED0D0BDBE700BFD43888BEE9FAA8BDD7
:10BAB000C4B1B4BD9EEE213EAD529C804F7E923EFD
:10BAC0009015CB19A001FA3E7751C1166CC1563FB3
:10BAD0004C5555555555A53F000000000000F03F5E
:10BAE0000000E03F3233D33F0000F03F0000E93F69
:10BAF0000000D23F000000002DE9F04F2DED028B39
:10BB0000ADF51B7D12F1140F09930191BE4BA6995F
:10BB10000A9053F821300493099B03F1FF33A8BF27
:10BB2000D41E0693B2BF0024182394FBF3F46FF0E5
:10BB3000170304FB033303EB020B049B069A9FEDF0
:10BB4000AE8B03EB0208A79BA71A22AE03EB870973
:10BB50000025454513DD099B22AA02EBC3050DF51F
:10BB6000E47A4FF00008049B984531DC9FEDA27BFE
:10BB7000DDF828908DED027B2F4600261BE0EF427A
:10BB800007D459F82500FBF70DFCE6E80201013562
:10BB9000DFE751EC180BF8E7D7E90023F9E80201D9
:10BBA000FBF76AFC02460B46DDE90201FBF7AEFA41
:10BBB000CDE902010136069B9E42A7F10807EBDDA5
:10BBC0009DED027B08F10108AAEC027B0835CAE76B
:10BBD000049BDDF810900EAA02EB83030C93A79B45
:10BBE00003EB84030B934FEAC9030D939AAB03EB6A
:10BBF000C90313ED287B8DED027B0DF1380A72AB82
:10BC000003EBC906D0464F46002FA6F1080677DCA5
:10BC100058469DED020B22F05DF955EC104B0022C9
:10BC20004FF07F5320462946FBF726FC41EC100BD2
:10BC300022F0B0F9754B51EC100B0022FBF71CFC05
:10BC400002460B4620462946FBF75EFA0D4604469F
:10BC5000FBF7C2FE0890FBF7A5FB02460B46204609
:10BC60002946FBF751FABBF1000F06460F466BDD84
:10BC700009F1FF310EAB089C53F82130CBF11800CD
:10BC800043FA00F2144482409B1A0EAA089442F828
:10BC90002130CBF1170213410293029B002B62DD8E
:10BCA000089B00220133089314466FF07F409145B2
:10BCB00000F3B880BBF1000F07DDBBF1010F00F00E
:10BCC000CA80BBF1020F00F0D180029B022B4AD147
:10BCD00032463B464E490020FBF716FA06460F4611
:10BCE000002C40D058469FED460B22F0F3F830462A
:10BCF000394653EC102BFBF707FA06460F4632E0A5
:10BD0000444B0022DDE90201FBF7B6FBFBF764FEC2
:10BD1000FBF748FB404B002204460D46FBF7ACFB0B
:10BD200002460B46DDE90201FBF7EEF9FBF754FE94
:10BD3000D6E9002348F8040B29462046FBF7E6F92C
:10BD4000013FCDE902015FE706D109F1FF330EAAF9
:10BD500052F82330DB159FE7304B0022FBF712FE31
:10BD6000002843D102900022002330463946FBF7D9
:10BD7000EBFD002800F0CC8009F1FF33002204998C
:10BD80008B427BDA002A00F0968009F1FF390EAB76
:10BD9000ABF1180B53F82930002BF6D058469FED25
:10BDA000180B22F097F8DFF86CB009F1010372AAC2
:10BDB00055EC104B4FEAC30802EBC3074E464FF059
:10BDC000000A002E80F2DC804C46002CC0F20A8172
:10BDD000134B1F4672AB03EBC40306934FF0000AEC
:10BDE0004FF0000B0026A9EB0405EFE002230293BD
:10BDF00056E700BFAFF30080000000000000000025
:10BE0000000000000000F03F6882050000002040B4
:10BE10000000F03F0000703E000070410000E03F75
:10BE2000F86C0500514651F8043B54B96BB101322E
:10BE3000C3F18073914541F8043C0ADD0B680AF1B7
:10BE40000801C31A41F8043C012301328A461C460A
:10BE50002DE701242EE709F1FF320EAB53F8223013
:10BE6000C3F316030EA941F822302EE709F1FF3281
:10BE70000EAB53F82230C3F31503F3E70EA951F8C4
:10BE80002310013B0A437AE7013453F8042D002ABA
:10BE9000FAD00D9B03F51A730DEB0305099B22AA3B
:10BEA0004B4409F10107983D02EBC3064C44BC42E8
:10BEB00004DAA14697E60C9B0124E6E70B9B53F8B6
:10BEC0002700FBF76FFA9FEDAE7BE6E802018DEDF0
:10BED000027BDDF82890B2464FF00008069B98459B
:10BEE00005DD9DED027B0137A5EC027BDFE77AE9FA
:10BEF0000223F9E80201FBF7BFFA02460B46DDE92F
:10BF00000201FBF703F908F10108CDE90201E5E7B9
:10BF1000CBF1000047EC106B21F0DCFF55EC104B2F
:10BF2000994B002220462946FBF72CFD00B3974B86
:10BF3000002220462946FBF79FFAFBF74DFD0646F7
:10BF4000FBF730FA904B0022FBF796FA0B460246BD
:10BF500029462046FBF7D8F8FBF73EFD0EAB0BF168
:10BF6000180B43F8290009F1010943F8296015E786
:10BF700020462946FBF730FD0EAB43F829000DE7BC
:10BF80000EAB53F82600FBF70DFA22462B46FBF7C3
:10BF900073FA524667E902015B4620462946FBF7E1
:10BFA0006BFA013E04460D460BE70699F1E80223C1
:10BFB0000691F7E80201FBF75FFA02460B4650468E
:10BFC0005946FBF7A3F8013682468B46049B9E42F6
:10BFD00001DCB542E9DA4AAB03EBC505C5E900ABC4
:10BFE000013CF2E6A69B022B0BDC002B38DC5AD07E
:10BFF000089B03F007000DF51B7DBDEC028BBDE82F
:10C00000F08FA69B032BF3D108F51A730DEB0304F5
:10C01000A4F5A4742546CA46BAF1000FA5F1080597
:10C0200067DC4D46012DA4F1080400F383804AAB80
:10C0300003EB080400200021B9F1010F00F3988000
:10C04000029BDDE94A78DDE94C56002B40F0A080E8
:10C05000019BC3E90078C3E90256C3E90401C7E7BD
:10C060004AAB98444C4600200021002C32DA029B57
:10C07000002B35D0024601F10043019CC4E90023A6
:10C0800002460B46DDE94A01FBF73EF84CAD0124C0
:10C09000A14528DA029B13B101F100431946019B27
:10C0A000C3E90201A4E74AAB984400200021B9F19A
:10C0B000000F08DA029B13B101F100431946019BFE
:10C0C000C3E9000194E778E90223FBF71FF809F1BF
:10C0D000FF39ECE778E90223FBF718F8013CC4E7E5
:10C0E00002460B46C9E7F5E80223FBF70FF80134D7
:10C0F000CEE795ED007B8DED047B95ED027BDDE9D0
:10C10000040153EC172B8DED067BFAF7FFFF024677
:10C110000B4606460F46DDE90401FAF7F5FFDDE9B7
:10C120000623FAF7F3FF0AF1FF3AC5E90201C5E970
:10C13000006771E794ED007BD4E902AB51EC170B7B
:10C1400052465B468DED047BFAF7E0FF02460B4654
:10C1500006460F46DDE90401FAF7D6FF52465B4674
:10C16000FAF7D4FF013DC4E90201C4E9006759E7C9
:10C1700074E90223FAF7CAFF09F1FF395CE700BF4F
:10C180000000000000000000000070410000703E50
:10C19000019B019A1F6008F100445C609D6006F1FC
:10C1A0000043D36001F100431061536120E700BFF9
:10C1B0002DE9F04F55EC104B25F0004385B0B3F15D
:10C1C000795F8DED021B804652D322462B462046D6
:10C1D0002946FBF751F982468B4602460B4620461C
:10C1E0002946FBF749F941A3D3E90023CDE9000132
:10C1F00050465946FBF740F93EA3D3E90023FAF72E
:10C2000083FF52465B46FBF737F93CA3D3E9002393
:10C21000FAF77CFF52465B46FBF72EF939A3D3E9C8
:10C220000023FAF771FF52465B46FBF725F937A367
:10C23000D3E90023FAF76AFF06460F46B8F1000F6C
:10C240001BD102460B4650465946FBF715F931A360
:10C25000D3E90023FAF758FFDDE90023FBF70CF9D7
:10C2600002460B4620462946FAF750FF04460D4683
:10C2700045EC104B05B0BDE8F08FDDE902011A4B2B
:10C280000022FBF7F9F83246804689463B46DDE955
:10C290000001FBF7F1F802460B4640464946FAF723
:10C2A00033FF52465B46FBF7E7F8DDE90223FAF776
:10C2B0002BFF0BA3D3E9002306460F46DDE900015F
:10C2C000FBF7DAF802460B4630463946FAF71CFF10
:10C2D00002460B4620462946FAF716FFC6E700BF7E
:10C2E000495555555555C5BF0000E03F7CD5CF5A3F
:10C2F0003AD9E53DEB9C2B8AE6E55A3E7DFEB157E7
:10C30000E31DC73ED561C119A0012A3FA6F810114F
:10C310001111813F495555555555C53F0000000045
:10C3200010B19FED030B70479FED030B704700BFEB
:10C33000000000000000008000000000000000007D
:10C3400010B19FED030B70479FED030B704700BFCB
:10C35000000000000000F0FF000000000000F07F7F
:10C3600070B501F0F5FD00F0F5FC314C034638B135
:10C370002268520704D02F4A0121204623F010F9E9
:10C3800000F060FE034638B12268560704D02A4AFE
:10C390002748012123F004F901F0C6FC034638B117
:10C3A0002268550704D0254A2148012123F0F8F8D6
:10C3B00001F042F9034638B12268500704D0204A00
:10C3C0001B48012123F0ECF801F06CFF034638B163
:10C3D0002268510704D01B4A1548012123F0E0F8D8
:10C3E00002F0C8F8034638B1226852070ED0164A48
:10C3F0000F48012123F0D4F8236803F00703022B30
:10C4000004D9124A0A48032123F0C1F8104E084DFE
:10C410004FF42030002129F0FAF8236803F00703D5
:10C42000022BF5D903213246284623F0B0F8EFE776
:10C4300078090020B2820500CD820500E98205005E
:10C44000008305001C830500398305005383050024
:10C45000A583050007B5074B0749D3E90023CDE9BC
:10C460000023064BD3E9002323F021FB002003B077
:10C470005DF804FB00000020B483050008000020E4
:10C4800008B5024923F013FB002008BDD88305003E
:10C490002DE9F0410E46D2B00446FF2130469046C9
:10C4A00029F032FB12AF054602463146384629F0E4
:10C4B000B8FA002339497B554246204623F0F7FA63
:10C4C00037493246204623F0F2FA29466A46384672
:10C4D00000F010FE051E08DA32492A46204623F0F5
:10C4E00002FB284652B0BDE8F0816A462E4920463C
:10C4F00023F0DDFA9DF820302C49013BDBB2022B02
:10C5000096BF2B4A2B4A52F82320204623F0CFFA1D
:10C51000DDE902232849204623F0C9FADDE9042396
:10C520002649204623F0C3FADDE9062324492046A4
:10C5300023F0BDFA23499DF82120204623F0B7FAC5
:10C540009DF82130D9071AD5099A1F49204623F0B2
:10C55000AEFA9DF821309A0716D5DDE90A231B496A
:10C56000204623F0A4FA9DF821305B0711D5DDE9C0
:10C570000C231749204623F09AFA0025B1E7154904
:10C58000204623F094FAE4E71349204623F08FFA7B
:10C59000E9E71249204623F08AFAEEE7E683050030
:10C5A000F2830500FC8305000E840500228405004B
:10C5B000386D0500DE830500368405004C840500D7
:10C5C00062840500788405008E840500BC84050023
:10C5D000EC840500A2840500D284050002850500D4
:10C5E00038B5084A08490546FFF752FF074A084987
:10C5F00004462846FFF74CFF30EA240028BF2046B7
:10C6000038BD00BF1C850500879005002885050002
:10C610002890050010B5044602F076F8204602493D
:10C6200023F045FA002010BD4C8505000229F8B51D
:10C63000054605D0104923F056FA6FF01500F8BDF5
:10C6400050680021FEF71CFC57EC106B0022002301
:10C6500030463946FBF78CF9044610B107492846A5
:10C66000E9E7074B0749C3E90067284632463B46DE
:10C6700023F01DFA2046E2E784850500A685050023
:10C6800000000020B58505000229F8B5054605D053
:10C69000104923F028FA6FF01500F8BD506800210A
:10C6A000FEF7EEFB57EC106B0022002330463946B4
:10C6B000FBF75EF9044610B107492846E9E7074B46
:10C6C0000749C3E90067284632463B4623F0EFF9A5
:10C6D0002046E2E7CB850500ED8505000800002037
:10C6E000FC85050010B5044601F0F8FF204602491C
:10C6F00023F0DDF9002010BD5A87050038B5054646
:10C7000001F094FF044630B102460549284623F063
:10C71000EAF9204638BD0349284623F0C8F9F8E76E
:10C7200097870500AA87050010B58AB0044605A8BA
:10C7300001F066FF099B0293089B0193079B0093FE
:10C740002046DDE90523034923F0B1F900200AB0B2
:10C7500010BD00BFFD87050010B58CB0044608A8C9
:10C7600001F096FC05A801F0C5FD01F05DFC0B9BF6
:10C7700002930A9B0193099B00930246089B074979
:10C78000204623F094F9079B00932046DDE905231A
:10C79000034923F08CF900200CB010BD3988050046
:10C7A0007888050010B5044601F0F2FB20460249E6
:10C7B00023F07DF9002010BDA288050010B590B0CF
:10C7C000044604A801F04EF90AA801F0B7FA089B44
:10C7D0000393079B9DF8240002930F49069B0F4A81
:10C7E0000193059B0093002818BF0A46049B0C493F
:10C7F000204623F05CF90F9B03930E9B02930D9B45
:10C8000001930C9B00932046DDE90A23054923F0A0
:10C810004EF9002010B010BDAE880500B2880500AA
:10C82000B5880500FA88050010B5044601F084F8C3
:10C830002046024923F03BF9002010BD4B8905003A
:10C8400010B5044601F066F82046024923F02FF99E
:10C85000002010BD6189050010B5044600F060FE9F
:10C860002046024923F023F9002010BD6F890500FE
:10C8700010B58AB0044605A800F026FC099B029377
:10C88000089B0193079B00932046DDE9052303499C
:10C8900023F00DF900200AB010BD00BF7D8905000E
:10C8A0002DE9F0470D46D0E91432D1E90261F61ABC
:10C8B00090F8293094B061EB020A13F0010F04469E
:10C8C0000BAF49D0C36A2C4A0C2138461FF0DEFB5F
:10C8D00094F8293013F0020F0DF1380841D0D4E953
:10C8E0000C230C21CDE900234046244A1FF0CEFB47
:10C8F00094F8293013F0040F0DF1440936D0D4E92F
:10C900000E230C21CDE9002348461C4A1FF0BEFB34
:10C91000286894F828300497CDE9086ACDE905899C
:10C92000D4E90667CDE90267013BDBB2022BD4E90B
:10C93000046796BF1249134B51F823301249CDE9D1
:10C94000006704F1080223F0B2F82B6901200133DB
:10C950002B6114B0BDE8F0870C493846FBF7D8F8D6
:10C96000B6E70A494046FBF7D3F8C1E7074948460E
:10C97000FBF7CEF8CCE700BF79910500C989050027
:10C98000386D0500DE830500CE89050038A5050059
:10C9900070B5022998B00446164607D02D4923F0F9
:10C9A000A2F86FF01505284618B070BD506806A9AA
:10C9B00021F063FB054628B172682749204623F021
:10C9C00092F8F0E79DF83830DDE90A01013BDBB26F
:10C9D000022B96BF214A224B52F823309DF8392072
:10C9E0000492CDE90201DDE9080106AACDE90001C2
:10C9F00020461C4923F05BF89DF83930D80704D550
:10CA00000F9A1949204623F052F89DF839309907BA
:10CA100005D5DDE910231549204623F048F89DF897
:10CA200039305A0705D5DDE912231149204623F094
:10CA30003EF89DF839301B07B5D5DDE914232046B3
:10CA40000C4923F034F8DDE916230B49204623F086
:10CA50002EF8A8E7118A0500308A0500386D050018
:10CA6000DE8305003F8A05006E8A05007B8A05008B
:10CA70008A8A05009A8A0500AB8A050070B586B0DF
:10CA80000446009028F06CFE4FF47A75A0FB053246
:10CA900005FB0121DB0B43EA4143C90BCDE9023120
:10CAA000002620460749049623F001F86946064807
:10CAB00001F0CEFA2046049A044922F0F8FF3046ED
:10CAC00006B070BDBC8A0500A1C80200F28A05004C
:10CAD0002DE9F04FA9B00446202200210DF13600C7
